Component: ARM Compiler 5.06 update 7 (build 960) Tool: armlink [4d3601]

==============================================================================

Section Cross References

    startup_stm32f407xx.o(RESET) refers to startup_stm32f407xx.o(STACK) for __initial_sp
    startup_stm32f407xx.o(RESET) refers to startup_stm32f407xx.o(.text) for Reset_Handler
    startup_stm32f407xx.o(RESET) refers to stm32f4xx_it.o(i.NMI_Handler) for NMI_Handler
    startup_stm32f407xx.o(RESET) refers to stm32f4xx_it.o(i.HardFault_Handler) for HardFault_Handler
    startup_stm32f407xx.o(RESET) refers to stm32f4xx_it.o(i.MemManage_Handler) for MemManage_Handler
    startup_stm32f407xx.o(RESET) refers to stm32f4xx_it.o(i.BusFault_Handler) for BusFault_Handler
    startup_stm32f407xx.o(RESET) refers to stm32f4xx_it.o(i.UsageFault_Handler) for UsageFault_Handler
    startup_stm32f407xx.o(RESET) refers to port.o(.emb_text) for SVC_Handler
    startup_stm32f407xx.o(RESET) refers to stm32f4xx_it.o(i.DebugMon_Handler) for DebugMon_Handler
    startup_stm32f407xx.o(RESET) refers to stm32f4xx_it.o(i.SysTick_Handler) for SysTick_Handler
    startup_stm32f407xx.o(RESET) refers to stm32f4xx_it.o(i.EXTI4_IRQHandler) for EXTI4_IRQHandler
    startup_stm32f407xx.o(RESET) refers to stm32f4xx_it.o(i.CAN1_TX_IRQHandler) for CAN1_TX_IRQHandler
    startup_stm32f407xx.o(RESET) refers to stm32f4xx_it.o(i.CAN1_RX0_IRQHandler) for CAN1_RX0_IRQHandler
    startup_stm32f407xx.o(RESET) refers to stm32f4xx_it.o(i.EXTI9_5_IRQHandler) for EXTI9_5_IRQHandler
    startup_stm32f407xx.o(RESET) refers to stm32f4xx_it.o(i.TIM1_UP_TIM10_IRQHandler) for TIM1_UP_TIM10_IRQHandler
    startup_stm32f407xx.o(RESET) refers to stm32f4xx_it.o(i.USART1_IRQHandler) for USART1_IRQHandler
    startup_stm32f407xx.o(RESET) refers to stm32f4xx_it.o(i.DMA2_Stream1_IRQHandler) for DMA2_Stream1_IRQHandler
    startup_stm32f407xx.o(RESET) refers to stm32f4xx_it.o(i.DMA2_Stream2_IRQHandler) for DMA2_Stream2_IRQHandler
==============================================================================

Removing Unused input sections from the image.

    Removing startup_stm32f407xx.o(HEAP), (512 bytes).
    Removing main.o(.rev16_text), (4 bytes).
    Removing main.o(.revsh_text), (4 bytes).
    Removing main.o(.rrx_text), (6 bytes).
    Removing gpio.o(.rev16_text), (4 bytes).
    Removing gpio.o(.revsh_text), (4 bytes).
    Removing gpio.o(.rrx_text), (6 bytes).
    Removing freertos.o(.rev16_text), (4 bytes).
    Removing freertos.o(.revsh_text), (4 bytes).
    Removing freertos.o(.rrx_text), (6 bytes).
    Removing freertos.o(i.StartTask02), (10 bytes).
    Removing freertos.o(i.StartTask03), (10 bytes).
    Removing freertos.o(i.StartTask04), (10 bytes).
    Removing freertos.o(i.StartTask05), (10 bytes).
    Removing freertos.o(.data), (4 bytes).
    Removing can.o(.rev16_text), (4 bytes).
    Removing can.o(.revsh_text), (4 bytes).
    Removing can.o(.rrx_text), (6 bytes).
==============================================================================

Image Symbol Table

    Local Symbols

    Symbol Name                              Value     Ov Type        Size  Object(Section)

    ../Drivers/STM32F4xx_HAL_Driver/Src/stm32f4xx_hal.c 0x00000000   Number         0  stm32f4xx_hal.o ABSOLUTE
    ../Drivers/STM32F4xx_HAL_Driver/Src/stm32f4xx_hal_can.c 0x00000000   Number         0  stm32f4xx_hal_can.o ABSOLUTE
    ../Drivers/STM32F4xx_HAL_Driver/Src/stm32f4xx_hal_cortex.c 0x00000000   Number         0  stm32f4xx_hal_cortex.o ABSOLUTE
    ../Drivers/STM32F4xx_HAL_Driver/Src/stm32f4xx_hal_dma.c 0x00000000   Number         0  stm32f4xx_hal_dma.o ABSOLUTE
    ../Drivers/STM32F4xx_HAL_Driver/Src/stm32f4xx_hal_dma_ex.c 0x00000000   Number         0  stm32f4xx_hal_dma_ex.o ABSOLUTE
    ../Drivers/STM32F4xx_HAL_Driver/Src/stm32f4xx_hal_exti.c 0x00000000   Number         0  stm32f4xx_hal_exti.o ABSOLUTE
    ../Drivers/STM32F4xx_HAL_Driver/Src/stm32f4xx_hal_flash.c 0x00000000   Number         0  stm32f4xx_hal_flash.o ABSOLUTE
    ../Drivers/STM32F4xx_HAL_Driver/Src/stm32f4xx_hal_flash_ex.c 0x00000000   Number         0  stm32f4xx_hal_flash_ex.o ABSOLUTE
    ../Drivers/STM32F4xx_HAL_Driver/Src/stm32f4xx_hal_flash_ramfunc.c 0x00000000   Number         0  stm32f4xx_hal_flash_ramfunc.o ABSOLUTE
    ../Drivers/STM32F4xx_HAL_Driver/Src/stm32f4xx_hal_gpio.c 0x00000000   Number         0  stm32f4xx_hal_gpio.o ABSOLUTE
    ../Drivers/STM32F4xx_HAL_Driver/Src/stm32f4xx_hal_pwr.c 0x00000000   Number         0  stm32f4xx_hal_pwr.o ABSOLUTE
    ../Drivers/STM32F4xx_HAL_Driver/Src/stm32f4xx_hal_pwr_ex.c 0x00000000   Number         0  stm32f4xx_hal_pwr_ex.o ABSOLUTE
    ../Drivers/STM32F4xx_HAL_Driver/Src/stm32f4xx_hal_rcc.c 0x00000000   Number         0  stm32f4xx_hal_rcc.o ABSOLUTE
    ../Drivers/STM32F4xx_HAL_Driver/Src/stm32f4xx_hal_rcc_ex.c 0x00000000   Number         0  stm32f4xx_hal_rcc_ex.o ABSOLUTE
    ../Drivers/STM32F4xx_HAL_Driver/Src/stm32f4xx_hal_spi.c 0x00000000   Number         0  stm32f4xx_hal_spi.o ABSOLUTE
    ../Drivers/STM32F4xx_HAL_Driver/Src/stm32f4xx_hal_tim.c 0x00000000   Number         0  stm32f4xx_hal_tim.o ABSOLUTE
    ../Drivers/STM32F4xx_HAL_Driver/Src/stm32f4xx_hal_tim_ex.c 0x00000000   Number         0  stm32f4xx_hal_tim_ex.o ABSOLUTE
    ../Drivers/STM32F4xx_HAL_Driver/Src/stm32f4xx_hal_uart.c 0x00000000   Number         0  stm32f4xx_hal_uart.o ABSOLUTE
    ../Middlewares/Third_Party/FreeRTOS/Source/CMSIS_RTOS/cmsis_os.c 0x00000000   Number         0  cmsis_os.o ABSOLUTE
    ../Middlewares/Third_Party/FreeRTOS/Source/croutine.c 0x00000000   Number         0  croutine.o ABSOLUTE
    ../Middlewares/Third_Party/FreeRTOS/Source/event_groups.c 0x00000000   Number         0  event_groups.o ABSOLUTE
    ../Middlewares/Third_Party/FreeRTOS/Source/list.c 0x00000000   Number         0  list.o ABSOLUTE
    ../Middlewares/Third_Party/FreeRTOS/Source/portable/MemMang/heap_4.c 0x00000000   Number         0  heap_4.o ABSOLUTE
    ../Middlewares/Third_Party/FreeRTOS/Source/portable/RVDS/ARM_CM4F/port.c 0x00000000   Number         0  port.o ABSOLUTE
    ../Middlewares/Third_Party/FreeRTOS/Source/queue.c 0x00000000   Number         0  queue.o ABSOLUTE
    ../Middlewares/Third_Party/FreeRTOS/Source/stream_buffer.c 0x00000000   Number         0  stream_buffer.o ABSOLUTE
    ../Middlewares/Third_Party/FreeRTOS/Source/tasks.c 0x00000000   Number         0  tasks.o ABSOLUTE
    ../Middlewares/Third_Party/FreeRTOS/Source/timers.c 0x00000000   Number         0  timers.o ABSOLUTE
    ../Src/can.c                             0x00000000   Number         0  can.o ABSOLUTE
    ../Src/dma.c                             0x00000000   Number         0  dma.o ABSOLUTE
    ../Src/freertos.c                        0x00000000   Number         0  freertos.o ABSOLUTE
    ../Src/gpio.c                            0x00000000   Number         0  gpio.o ABSOLUTE
    ../Src/main.c                            0x00000000   Number         0  main.o ABSOLUTE
    ../Src/spi.c                             0x00000000   Number         0  spi.o ABSOLUTE
    ../Src/stm32f4xx_hal_msp.c               0x00000000   Number         0  stm32f4xx_hal_msp.o ABSOLUTE
    ../Src/stm32f4xx_it.c                    0x00000000   Number         0  stm32f4xx_it.o ABSOLUTE
    ../Src/system_stm32f4xx.c                0x00000000   Number         0  system_stm32f4xx.o ABSOLUTE
    ../Src/tim.c                             0x00000000   Number         0  tim.o ABSOLUTE
    ../Src/usart.c                           0x00000000   Number         0  usart.o ABSOLUTE
    ../clib/../cmprslib/zerorunl2.c          0x00000000   Number         0  __dczerorl2.o ABSOLUTE
    ../clib/microlib/division.c              0x00000000   Number         0  uldiv.o ABSOLUTE
    ../clib/microlib/division.c              0x00000000   Number         0  uidiv.o ABSOLUTE
    ../clib/microlib/init/entry.s            0x00000000   Number         0  entry7b.o ABSOLUTE
    ../clib/microlib/init/entry.s            0x00000000   Number         0  entry7a.o ABSOLUTE
    ../clib/microlib/init/entry.s            0x00000000   Number         0  entry9b.o ABSOLUTE
    ../clib/microlib/init/entry.s            0x00000000   Number         0  entry2.o ABSOLUTE
    ../clib/microlib/init/entry.s            0x00000000   Number         0  entry10a.o ABSOLUTE
    ../clib/microlib/init/entry.s            0x00000000   Number         0  entry10b.o ABSOLUTE
    ../clib/microlib/init/entry.s            0x00000000   Number         0  entry11a.o ABSOLUTE
    ../clib/microlib/init/entry.s            0x00000000   Number         0  entry5.o ABSOLUTE
    ../clib/microlib/init/entry.s            0x00000000   Number         0  entry11b.o ABSOLUTE
    ../clib/microlib/init/entry.s            0x00000000   Number         0  entry9a.o ABSOLUTE
    ../clib/microlib/init/entry.s            0x00000000   Number         0  entry8b.o ABSOLUTE
    ../clib/microlib/init/entry.s            0x00000000   Number         0  entry12b.o ABSOLUTE
    ../clib/microlib/init/entry.s            0x00000000   Number         0  entry12a.o ABSOLUTE
    ../clib/microlib/init/entry.s            0x00000000   Number         0  entry8a.o ABSOLUTE
    ../clib/microlib/init/entry.s            0x00000000   Number         0  entry.o ABSOLUTE
    ../clib/microlib/longlong.c              0x00000000   Number         0  llushr.o ABSOLUTE
    ../clib/microlib/longlong.c              0x00000000   Number         0  llsshr.o ABSOLUTE
    ../clib/microlib/longlong.c              0x00000000   Number         0  llshl.o ABSOLUTE
    ../clib/microlib/printf/printf.c         0x00000000   Number         0  printfb.o ABSOLUTE
    ../clib/microlib/printf/printf.c         0x00000000   Number         0  printf7.o ABSOLUTE
    ../clib/microlib/printf/printf.c         0x00000000   Number         0  printf4.o ABSOLUTE
    ../clib/microlib/printf/printf.c         0x00000000   Number         0  printf3.o ABSOLUTE
    ../clib/microlib/printf/printf.c         0x00000000   Number         0  printf5.o ABSOLUTE
    ../clib/microlib/printf/printf.c         0x00000000   Number         0  printf1.o ABSOLUTE
    ../clib/microlib/printf/printf.c         0x00000000   Number         0  printf2.o ABSOLUTE
    ../clib/microlib/printf/printf.c         0x00000000   Number         0  printf0.o ABSOLUTE
    ../clib/microlib/printf/printf.c         0x00000000   Number         0  printfa.o ABSOLUTE
    ../clib/microlib/printf/printf.c         0x00000000   Number         0  printf6.o ABSOLUTE
    ../clib/microlib/printf/printf.c         0x00000000   Number         0  printf8.o ABSOLUTE
    ../clib/microlib/printf/stubs.s          0x00000000   Number         0  stubs.o ABSOLUTE
    ../clib/microlib/stdio/streams.c         0x00000000   Number         0  stdout.o ABSOLUTE
    ../clib/microlib/string/memcpy.c         0x00000000   Number         0  memcpyb.o ABSOLUTE
    ../clib/microlib/string/memcpy.c         0x00000000   Number         0  memcpya.o ABSOLUTE
    ../clib/microlib/string/memset.c         0x00000000   Number         0  memset.o ABSOLUTE
    ../clib/microlib/string/memset.c         0x00000000   Number         0  memseta.o ABSOLUTE
    ../clib/microlib/stubs.s                 0x00000000   Number         0  iusefp.o ABSOLUTE
    ../fplib/microlib/d2f.c                  0x00000000   Number         0  d2f.o ABSOLUTE
    ../fplib/microlib/f2d.c                  0x00000000   Number         0  f2d.o ABSOLUTE
    ../fplib/microlib/fpadd.c                0x00000000   Number         0  dadd.o ABSOLUTE
    ../fplib/microlib/fpdiv.c                0x00000000   Number         0  ddiv.o ABSOLUTE
    ../fplib/microlib/fpepilogue.c           0x00000000   Number         0  fepilogue.o ABSOLUTE
    ../fplib/microlib/fpepilogue.c           0x00000000   Number         0  depilogue.o ABSOLUTE
    ../fplib/microlib/fpfix.c                0x00000000   Number         0  dfixul.o ABSOLUTE
    ../fplib/microlib/fpflt.c                0x00000000   Number         0  dflti.o ABSOLUTE
    ../fplib/microlib/fpmul.c                0x00000000   Number         0  dmul.o ABSOLUTE
    ../fplib/microlib/fpneg.c                0x00000000   Number         0  dneg.o ABSOLUTE
    ..\Drivers\STM32F4xx_HAL_Driver\Src\stm32f4xx_hal.c 0x00000000   Number         0  stm32f4xx_hal.o ABSOLUTE
    ..\Drivers\STM32F4xx_HAL_Driver\Src\stm32f4xx_hal_can.c 0x00000000   Number         0  stm32f4xx_hal_can.o ABSOLUTE
    ..\Drivers\STM32F4xx_HAL_Driver\Src\stm32f4xx_hal_cortex.c 0x00000000   Number         0  stm32f4xx_hal_cortex.o ABSOLUTE
    ..\Drivers\STM32F4xx_HAL_Driver\Src\stm32f4xx_hal_dma.c 0x00000000   Number         0  stm32f4xx_hal_dma.o ABSOLUTE
    ..\Drivers\STM32F4xx_HAL_Driver\Src\stm32f4xx_hal_dma_ex.c 0x00000000   Number         0  stm32f4xx_hal_dma_ex.o ABSOLUTE
    ..\Drivers\STM32F4xx_HAL_Driver\Src\stm32f4xx_hal_exti.c 0x00000000   Number         0  stm32f4xx_hal_exti.o ABSOLUTE
    ..\Drivers\STM32F4xx_HAL_Driver\Src\stm32f4xx_hal_flash.c 0x00000000   Number         0  stm32f4xx_hal_flash.o ABSOLUTE
    ..\Drivers\STM32F4xx_HAL_Driver\Src\stm32f4xx_hal_flash_ex.c 0x00000000   Number         0  stm32f4xx_hal_flash_ex.o ABSOLUTE
    ..\Drivers\STM32F4xx_HAL_Driver\Src\stm32f4xx_hal_flash_ramfunc.c 0x00000000   Number         0  stm32f4xx_hal_flash_ramfunc.o ABSOLUTE
    ..\Drivers\STM32F4xx_HAL_Driver\Src\stm32f4xx_hal_gpio.c 0x00000000   Number         0  stm32f4xx_hal_gpio.o ABSOLUTE
    ..\Drivers\STM32F4xx_HAL_Driver\Src\stm32f4xx_hal_pwr.c 0x00000000   Number         0  stm32f4xx_hal_pwr.o ABSOLUTE
    ..\Drivers\STM32F4xx_HAL_Driver\Src\stm32f4xx_hal_pwr_ex.c 0x00000000   Number         0  stm32f4xx_hal_pwr_ex.o ABSOLUTE
    ..\Drivers\STM32F4xx_HAL_Driver\Src\stm32f4xx_hal_rcc.c 0x00000000   Number         0  stm32f4xx_hal_rcc.o ABSOLUTE
    ..\Drivers\STM32F4xx_HAL_Driver\Src\stm32f4xx_hal_rcc_ex.c 0x00000000   Number         0  stm32f4xx_hal_rcc_ex.o ABSOLUTE
    ..\Drivers\STM32F4xx_HAL_Driver\Src\stm32f4xx_hal_spi.c 0x00000000   Number         0  stm32f4xx_hal_spi.o ABSOLUTE
    ..\Drivers\STM32F4xx_HAL_Driver\Src\stm32f4xx_hal_tim.c 0x00000000   Number         0  stm32f4xx_hal_tim.o ABSOLUTE
    ..\Drivers\STM32F4xx_HAL_Driver\Src\stm32f4xx_hal_tim_ex.c 0x00000000   Number         0  stm32f4xx_hal_tim_ex.o ABSOLUTE
    ..\Drivers\STM32F4xx_HAL_Driver\Src\stm32f4xx_hal_uart.c 0x00000000   Number         0  stm32f4xx_hal_uart.o ABSOLUTE
    ..\Middlewares\Third_Party\FreeRTOS\Source\CMSIS_RTOS\cmsis_os.c 0x00000000   Number         0  cmsis_os.o ABSOLUTE
    ..\Middlewares\Third_Party\FreeRTOS\Source\portable\RVDS\ARM_CM4F\port.c 0x00000000   Number         0  port.o ABSOLUTE
    ..\Src\can.c                             0x00000000   Number         0  can.o ABSOLUTE
    ..\Src\dma.c                             0x00000000   Number         0  dma.o ABSOLUTE
    ..\Src\freertos.c                        0x00000000   Number         0  freertos.o ABSOLUTE
    ..\Src\gpio.c                            0x00000000   Number         0  gpio.o ABSOLUTE
    ..\Src\main.c                            0x00000000   Number         0  main.o ABSOLUTE
    ..\Src\spi.c                             0x00000000   Number         0  spi.o ABSOLUTE
    ..\Src\stm32f4xx_hal_msp.c               0x00000000   Number         0  stm32f4xx_hal_msp.o ABSOLUTE
    ..\Src\stm32f4xx_it.c                    0x00000000   Number         0  stm32f4xx_it.o ABSOLUTE
    ..\Src\system_stm32f4xx.c                0x00000000   Number         0  system_stm32f4xx.o ABSOLUTE
    ..\Src\tim.c                             0x00000000   Number         0  tim.o ABSOLUTE
    ..\Src\usart.c                           0x00000000   Number         0  usart.o ABSOLUTE
    ..\TASK\myTask02.c                       0x00000000   Number         0  mytask02.o ABSOLUTE
    ..\TASK\myTask03.c                       0x00000000   Number         0  mytask03.o ABSOLUTE
    ..\TASK\myTask04.c                       0x00000000   Number         0  mytask04.o ABSOLUTE
    ..\\TASK\\myTask02.c                     0x00000000   Number         0  mytask02.o ABSOLUTE
    ..\\TASK\\myTask03.c                     0x00000000   Number         0  mytask03.o ABSOLUTE
    ..\\TASK\\myTask04.c                     0x00000000   Number         0  mytask04.o ABSOLUTE
    ..\\bsp\\STMGood.c                       0x00000000   Number         0  stmgood.o ABSOLUTE
    ..\\bsp\\bsp_can.c                       0x00000000   Number         0  bsp_can.o ABSOLUTE
    ..\\bsp\\bsp_usart.c                     0x00000000   Number         0  bsp_usart.o ABSOLUTE
    ..\\component\\devices\\BMI088Middleware.c 0x00000000   Number         0  bmi088middleware.o ABSOLUTE
    ..\\component\\devices\\BMI088driver.c   0x00000000   Number         0  bmi088driver.o ABSOLUTE
    ..\\judg\\RM_Task.c                      0x00000000   Number         0  rm_task.o ABSOLUTE
    ..\\judg\\crc.c                          0x00000000   Number         0  crc.o ABSOLUTE
    ..\\judg\\judge.c                        0x00000000   Number         0  judge.o ABSOLUTE
    ..\bsp\STMGood.c                         0x00000000   Number         0  stmgood.o ABSOLUTE
    ..\bsp\bsp_can.c                         0x00000000   Number         0  bsp_can.o ABSOLUTE
    ..\bsp\bsp_usart.c                       0x00000000   Number         0  bsp_usart.o ABSOLUTE
    ..\component\devices\BMI088Middleware.c  0x00000000   Number         0  bmi088middleware.o ABSOLUTE
    ..\component\devices\BMI088driver.c      0x00000000   Number         0  bmi088driver.o ABSOLUTE
    ..\judg\RM_Task.c                        0x00000000   Number         0  rm_task.o ABSOLUTE
    ..\judg\crc.c                            0x00000000   Number         0  crc.o ABSOLUTE
    ..\judg\judge.c                          0x00000000   Number         0  judge.o ABSOLUTE
    cdrcmple.s                               0x00000000   Number         0  cdrcmple.o ABSOLUTE
    dc.s                                     0x00000000   Number         0  dc.o ABSOLUTE
    handlers.s                               0x00000000   Number         0  handlers.o ABSOLUTE
    init.s                                   0x00000000   Number         0  init.o ABSOLUTE
    startup_stm32f407xx.s                    0x00000000   Number         0  startup_stm32f407xx.o ABSOLUTE
    RESET                                    0x08000000   Section      392  startup_stm32f407xx.o(RESET)
    .ARM.Collect$$$$00000000                 0x08000188   Section        0  entry.o(.ARM.Collect$$$$00000000)
    .ARM.Collect$$$$00000001                 0x08000188   Section        4  entry2.o(.ARM.Collect$$$$00000001)
    .ARM.Collect$$$$00000004                 0x0800018c   Section        4  entry5.o(.ARM.Collect$$$$00000004)
    .ARM.Collect$$$$00000008                 0x08000190   Section        0  entry7b.o(.ARM.Collect$$$$00000008)
    .ARM.Collect$$$$0000000A                 0x08000190   Section        0  entry8b.o(.ARM.Collect$$$$0000000A)
    .ARM.Collect$$$$0000000B                 0x08000190   Section        8  entry9a.o(.ARM.Collect$$$$0000000B)
    .ARM.Collect$$$$0000000E                 0x08000198   Section        4  entry12b.o(.ARM.Collect$$$$0000000E)
    .ARM.Collect$$$$0000000F                 0x0800019c   Section        0  entry10a.o(.ARM.Collect$$$$0000000F)
    .ARM.Collect$$$$00000011                 0x0800019c   Section        0  entry11a.o(.ARM.Collect$$$$00000011)
    .ARM.Collect$$$$00002712                 0x0800019c   Section        4  entry2.o(.ARM.Collect$$$$00002712)
    __lit__00000000                          0x0800019c   Data           4  entry2.o(.ARM.Collect$$$$00002712)
    .emb_text                                0x080001a0   Section      190  port.o(.emb_text)
    $v0                                      0x080001a0   Number         0  port.o(.emb_text)
    .text                                    0x08000260   Section       36  startup_stm32f407xx.o(.text)
    $v0                                      0x08000260   Number         0  startup_stm32f407xx.o(.text)
    .text                                    0x08000284   Section        0  uldiv.o(.text)
    .text                                    0x080002e6   Section        0  memcpya.o(.text)
    .text                                    0x0800030a   Section        0  memseta.o(.text)
    .text                                    0x0800032e   Section        0  dadd.o(.text)
    .text                                    0x0800047c   Section        0  dmul.o(.text)
    .text                                    0x08000560   Section        0  dflti.o(.text)
    .text                                    0x08000582   Section        0  f2d.o(.text)
    .text                                    0x080005a8   Section        0  d2f.o(.text)
    .text                                    0x080005e0   Section        0  uidiv.o(.text)
    .text                                    0x0800060c   Section        0  llshl.o(.text)
    .text                                    0x0800062a   Section        0  llushr.o(.text)
    .text                                    0x0800064a   Section        0  llsshr.o(.text)
    .text                                    0x0800066e   Section        0  fepilogue.o(.text)
    .text                                    0x0800066e   Section        0  iusefp.o(.text)
    .text                                    0x080006dc   Section        0  depilogue.o(.text)
    .text                                    0x08000796   Section        0  ddiv.o(.text)
    .text                                    0x08000874   Section        0  dfixul.o(.text)
    .text                                    0x080008a4   Section       48  cdrcmple.o(.text)
    .text                                    0x080008d4   Section       36  init.o(.text)
    .text                                    0x080008f8   Section        0  __dczerorl2.o(.text)
    i.AddFloatdata                           0x08000950   Section        0  judge.o(i.AddFloatdata)
    i.AddPicture                             0x080009e0   Section        0  judge.o(i.AddPicture)
    i.AddPictureFunc                         0x08000a9c   Section        0  judge.o(i.AddPictureFunc)
    i.Append_CRC16_Check_Sum                 0x08000b44   Section        0  crc.o(i.Append_CRC16_Check_Sum)
    i.Append_CRC8_Check_Sum                  0x08000b6c   Section        0  crc.o(i.Append_CRC8_Check_Sum)
    i.BMI088_ACCEL_NS_H                      0x08000b88   Section        0  bmi088middleware.o(i.BMI088_ACCEL_NS_H)
    i.BMI088_ACCEL_NS_L                      0x08000b98   Section        0  bmi088middleware.o(i.BMI088_ACCEL_NS_L)
    i.BMI088_GPIO_init                       0x08000ba8   Section        0  bmi088middleware.o(i.BMI088_GPIO_init)
    i.BMI088_GYRO_NS_H                       0x08000bac   Section        0  bmi088middleware.o(i.BMI088_GYRO_NS_H)
    i.BMI088_GYRO_NS_L                       0x08000bbc   Section        0  bmi088middleware.o(i.BMI088_GYRO_NS_L)
    i.BMI088_com_init                        0x08000bcc   Section        0  bmi088middleware.o(i.BMI088_com_init)
    i.BMI088_delay_ms                        0x08000bce   Section        0  bmi088middleware.o(i.BMI088_delay_ms)
    i.BMI088_delay_us                        0x08000be6   Section        0  bmi088middleware.o(i.BMI088_delay_us)
    i.BMI088_init                            0x08000c14   Section        0  bmi088driver.o(i.BMI088_init)
    i.BMI088_read                            0x08000c2c   Section        0  bmi088driver.o(i.BMI088_read)
    i.BMI088_read_muli_reg                   0x08000d84   Section        0  bmi088driver.o(i.BMI088_read_muli_reg)
    BMI088_read_muli_reg                     0x08000d85   Thumb Code    36  bmi088driver.o(i.BMI088_read_muli_reg)
    i.BMI088_read_single_reg                 0x08000da8   Section        0  bmi088driver.o(i.BMI088_read_single_reg)
    BMI088_read_single_reg                   0x08000da9   Thumb Code    22  bmi088driver.o(i.BMI088_read_single_reg)
    i.BMI088_read_write_byte                 0x08000dc0   Section        0  bmi088middleware.o(i.BMI088_read_write_byte)
    i.BMI088_write_single_reg                0x08000de0   Section        0  bmi088driver.o(i.BMI088_write_single_reg)
    BMI088_write_single_reg                  0x08000de1   Thumb Code    18  bmi088driver.o(i.BMI088_write_single_reg)
    i.Boarder                                0x08000df4   Section        0  judge.o(i.Boarder)
    i.BusFault_Handler                       0x08000f78   Section        0  stm32f4xx_it.o(i.BusFault_Handler)
    i.CAN1_RX0_IRQHandler                    0x08000f7c   Section        0  stm32f4xx_it.o(i.CAN1_RX0_IRQHandler)
    i.CAN1_TX_IRQHandler                     0x08000f88   Section        0  stm32f4xx_it.o(i.CAN1_TX_IRQHandler)
    i.CAN2_RX0_IRQHandler                    0x08000f94   Section        0  stm32f4xx_it.o(i.CAN2_RX0_IRQHandler)
    i.CAN2_TX_IRQHandler                     0x08000fa0   Section        0  stm32f4xx_it.o(i.CAN2_TX_IRQHandler)
    i.CANFilter_Enable                       0x08000fac   Section        0  bsp_can.o(i.CANFilter_Enable)
    i.CAN_Enable                             0x08001014   Section        0  bsp_can.o(i.CAN_Enable)
    i.CAN_Send_bytes                         0x08001030   Section        0  bsp_can.o(i.CAN_Send_bytes)
    i.CharacteFRIC_stateShow                 0x08001088   Section        0  judge.o(i.CharacteFRIC_stateShow)
    i.CharacterCHASSISMODstateShow           0x080011f4   Section        0  judge.o(i.CharacterCHASSISMODstateShow)
    i.CharacterCHASSIS_MODE                  0x080012e8   Section        0  judge.o(i.CharacterCHASSIS_MODE)
    i.CharacterFRIC_MODEShow                 0x08001404   Section        0  judge.o(i.CharacterFRIC_MODEShow)
    i.CharacterGIMBAL_MODE                   0x08001528   Section        0  judge.o(i.CharacterGIMBAL_MODE)
    i.CharacterGIMBALstateShow               0x08001644   Section        0  judge.o(i.CharacterGIMBALstateShow)
    i.CharacterPitchShow                     0x080017b8   Section        0  judge.o(i.CharacterPitchShow)
    i.CheckID                                0x080018e0   Section        0  judge.o(i.CheckID)
    i.Command                                0x080018f4   Section        0  stmgood.o(i.Command)
    i.CompStr                                0x08001afc   Section        0  stmgood.o(i.CompStr)
    i.CopyStr                                0x08001b2c   Section        0  stmgood.o(i.CopyStr)
    i.Crosshair                              0x08001b44   Section        0  judge.o(i.Crosshair)
    i.Crosshair1                             0x08001da8   Section        0  judge.o(i.Crosshair1)
    i.DMA2_Stream1_IRQHandler                0x08001ec8   Section        0  stm32f4xx_it.o(i.DMA2_Stream1_IRQHandler)
    i.DMA2_Stream2_IRQHandler                0x08001ed4   Section        0  stm32f4xx_it.o(i.DMA2_Stream2_IRQHandler)
    i.DMA2_Stream3_IRQHandler                0x08001ee0   Section        0  stm32f4xx_it.o(i.DMA2_Stream3_IRQHandler)
    i.DMA_CalcBaseAndBitshift                0x08001eec   Section        0  stm32f4xx_hal_dma.o(i.DMA_CalcBaseAndBitshift)
    DMA_CalcBaseAndBitshift                  0x08001eed   Thumb Code    34  stm32f4xx_hal_dma.o(i.DMA_CalcBaseAndBitshift)
    i.DMA_CheckFifoParam                     0x08001f14   Section        0  stm32f4xx_hal_dma.o(i.DMA_CheckFifoParam)
    DMA_CheckFifoParam                       0x08001f15   Thumb Code    84  stm32f4xx_hal_dma.o(i.DMA_CheckFifoParam)
    i.DMA_SetConfig                          0x08001f68   Section        0  stm32f4xx_hal_dma.o(i.DMA_SetConfig)
    DMA_SetConfig                            0x08001f69   Thumb Code    40  stm32f4xx_hal_dma.o(i.DMA_SetConfig)
    i.DealStr                                0x08001f90   Section        0  stmgood.o(i.DealStr)
    i.Dealdata                               0x08002018   Section        0  stmgood.o(i.Dealdata)
    i.DebugMon_Handler                       0x080020a8   Section        0  stm32f4xx_it.o(i.DebugMon_Handler)
    i.DrawCapVolRectangle                    0x080020ac   Section        0  judge.o(i.DrawCapVolRectangle)
    i.EXTI4_IRQHandler                       0x080024e8   Section        0  stm32f4xx_it.o(i.EXTI4_IRQHandler)
    i.EXTI9_5_IRQHandler                     0x080024ee   Section        0  stm32f4xx_it.o(i.EXTI9_5_IRQHandler)
    i.Error_Handler                          0x080024f4   Section        0  main.o(i.Error_Handler)
    i.FirstSpace                             0x080024f6   Section        0  stmgood.o(i.FirstSpace)
    i.FloatDataShow                          0x08002510   Section        0  judge.o(i.FloatDataShow)
    i.Get_CRC16_Check_Sum                    0x0800276c   Section        0  crc.o(i.Get_CRC16_Check_Sum)
    i.Get_CRC8_Check_Sum                     0x08002798   Section        0  crc.o(i.Get_CRC8_Check_Sum)
    i.HAL_CAN_ActivateNotification           0x080027b4   Section        0  stm32f4xx_hal_can.o(i.HAL_CAN_ActivateNotification)
    i.HAL_CAN_AddTxMessage                   0x080027d8   Section        0  stm32f4xx_hal_can.o(i.HAL_CAN_AddTxMessage)
    i.HAL_CAN_ConfigFilter                   0x080028b4   Section        0  stm32f4xx_hal_can.o(i.HAL_CAN_ConfigFilter)
    i.HAL_CAN_ErrorCallback                  0x080029c0   Section        0  stm32f4xx_hal_can.o(i.HAL_CAN_ErrorCallback)
    i.HAL_CAN_GetRxMessage                   0x080029c2   Section        0  stm32f4xx_hal_can.o(i.HAL_CAN_GetRxMessage)
    i.HAL_CAN_IRQHandler                     0x08002aaa   Section        0  stm32f4xx_hal_can.o(i.HAL_CAN_IRQHandler)
    i.HAL_CAN_Init                           0x08002ca6   Section        0  stm32f4xx_hal_can.o(i.HAL_CAN_Init)
    i.HAL_CAN_MspInit                        0x08002dc0   Section        0  can.o(i.HAL_CAN_MspInit)
    i.HAL_CAN_RxFifo0FullCallback            0x08002edc   Section        0  stm32f4xx_hal_can.o(i.HAL_CAN_RxFifo0FullCallback)
    i.HAL_CAN_RxFifo0MsgPendingCallback      0x08002ee0   Section        0  bsp_can.o(i.HAL_CAN_RxFifo0MsgPendingCallback)
    i.HAL_CAN_RxFifo1FullCallback            0x08002fb4   Section        0  stm32f4xx_hal_can.o(i.HAL_CAN_RxFifo1FullCallback)
    i.HAL_CAN_RxFifo1MsgPendingCallback      0x08002fb6   Section        0  stm32f4xx_hal_can.o(i.HAL_CAN_RxFifo1MsgPendingCallback)
    i.HAL_CAN_SleepCallback                  0x08002fb8   Section        0  stm32f4xx_hal_can.o(i.HAL_CAN_SleepCallback)
    i.HAL_CAN_Start                          0x08002fbc   Section        0  stm32f4xx_hal_can.o(i.HAL_CAN_Start)
    i.HAL_CAN_TxMailbox0AbortCallback        0x08003014   Section        0  stm32f4xx_hal_can.o(i.HAL_CAN_TxMailbox0AbortCallback)
    i.HAL_CAN_TxMailbox0CompleteCallback     0x08003016   Section        0  stm32f4xx_hal_can.o(i.HAL_CAN_TxMailbox0CompleteCallback)
    i.HAL_CAN_TxMailbox1AbortCallback        0x08003018   Section        0  stm32f4xx_hal_can.o(i.HAL_CAN_TxMailbox1AbortCallback)
    i.HAL_CAN_TxMailbox1CompleteCallback     0x0800301a   Section        0  stm32f4xx_hal_can.o(i.HAL_CAN_TxMailbox1CompleteCallback)
    i.HAL_CAN_TxMailbox2AbortCallback        0x0800301c   Section        0  stm32f4xx_hal_can.o(i.HAL_CAN_TxMailbox2AbortCallback)
    i.HAL_CAN_TxMailbox2CompleteCallback     0x0800301e   Section        0  stm32f4xx_hal_can.o(i.HAL_CAN_TxMailbox2CompleteCallback)
    i.HAL_CAN_WakeUpFromRxMsgCallback        0x08003020   Section        0  stm32f4xx_hal_can.o(i.HAL_CAN_WakeUpFromRxMsgCallback)
    i.HAL_DMA_Abort_IT                       0x08003022   Section        0  stm32f4xx_hal_dma.o(i.HAL_DMA_Abort_IT)
    i.HAL_DMA_IRQHandler                     0x08003048   Section        0  stm32f4xx_hal_dma.o(i.HAL_DMA_IRQHandler)
    i.HAL_DMA_Init                           0x080031e8   Section        0  stm32f4xx_hal_dma.o(i.HAL_DMA_Init)
    i.HAL_DMA_Start_IT                       0x080032bc   Section        0  stm32f4xx_hal_dma.o(i.HAL_DMA_Start_IT)
    i.HAL_GPIO_EXTI_Callback                 0x0800332a   Section        0  stm32f4xx_hal_gpio.o(i.HAL_GPIO_EXTI_Callback)
    i.HAL_GPIO_EXTI_IRQHandler               0x0800332c   Section        0  stm32f4xx_hal_gpio.o(i.HAL_GPIO_EXTI_IRQHandler)
    i.HAL_GPIO_Init                          0x08003344   Section        0  stm32f4xx_hal_gpio.o(i.HAL_GPIO_Init)
    i.HAL_GPIO_WritePin                      0x080034fc   Section        0  stm32f4xx_hal_gpio.o(i.HAL_GPIO_WritePin)
    i.HAL_GetTick                            0x08003508   Section        0  stm32f4xx_hal.o(i.HAL_GetTick)
    i.HAL_IncTick                            0x08003514   Section        0  stm32f4xx_hal.o(i.HAL_IncTick)
    i.HAL_Init                               0x08003524   Section        0  stm32f4xx_hal.o(i.HAL_Init)
    i.HAL_InitTick                           0x08003558   Section        0  stm32f4xx_hal.o(i.HAL_InitTick)
    i.HAL_MspInit                            0x08003598   Section        0  stm32f4xx_hal_msp.o(i.HAL_MspInit)
    i.HAL_NVIC_EnableIRQ                     0x080035d0   Section        0  stm32f4xx_hal_cortex.o(i.HAL_NVIC_EnableIRQ)
    i.HAL_NVIC_SetPriority                   0x080035ec   Section        0  stm32f4xx_hal_cortex.o(i.HAL_NVIC_SetPriority)
    i.HAL_NVIC_SetPriorityGrouping           0x0800362c   Section        0  stm32f4xx_hal_cortex.o(i.HAL_NVIC_SetPriorityGrouping)
    i.HAL_RCC_ClockConfig                    0x08003650   Section        0  stm32f4xx_hal_rcc.o(i.HAL_RCC_ClockConfig)
    i.HAL_RCC_GetPCLK1Freq                   0x08003784   Section        0  stm32f4xx_hal_rcc.o(i.HAL_RCC_GetPCLK1Freq)
    i.HAL_RCC_GetPCLK2Freq                   0x080037a4   Section        0  stm32f4xx_hal_rcc.o(i.HAL_RCC_GetPCLK2Freq)
    i.HAL_RCC_GetSysClockFreq                0x080037c4   Section        0  stm32f4xx_hal_rcc.o(i.HAL_RCC_GetSysClockFreq)
    i.HAL_RCC_OscConfig                      0x08003828   Section        0  stm32f4xx_hal_rcc.o(i.HAL_RCC_OscConfig)
    i.HAL_SPI_Init                           0x08003b84   Section        0  stm32f4xx_hal_spi.o(i.HAL_SPI_Init)
    i.HAL_SPI_MspInit                        0x08003c04   Section        0  spi.o(i.HAL_SPI_MspInit)
    i.HAL_SPI_TransmitReceive                0x08003d04   Section        0  stm32f4xx_hal_spi.o(i.HAL_SPI_TransmitReceive)
    i.HAL_SYSTICK_Config                     0x08003ee6   Section        0  stm32f4xx_hal_cortex.o(i.HAL_SYSTICK_Config)
    i.HAL_TIMEx_BreakCallback                0x08003f0e   Section        0  stm32f4xx_hal_tim_ex.o(i.HAL_TIMEx_BreakCallback)
    i.HAL_TIMEx_CommutCallback               0x08003f10   Section        0  stm32f4xx_hal_tim_ex.o(i.HAL_TIMEx_CommutCallback)
    i.HAL_TIM_Base_Init                      0x08003f12   Section        0  stm32f4xx_hal_tim.o(i.HAL_TIM_Base_Init)
    i.HAL_TIM_Base_MspInit                   0x08003f48   Section        0  tim.o(i.HAL_TIM_Base_MspInit)
    i.HAL_TIM_IC_CaptureCallback             0x08003f84   Section        0  stm32f4xx_hal_tim.o(i.HAL_TIM_IC_CaptureCallback)
    i.HAL_TIM_IRQHandler                     0x08003f86   Section        0  stm32f4xx_hal_tim.o(i.HAL_TIM_IRQHandler)
    i.HAL_TIM_MspPostInit                    0x080040ec   Section        0  tim.o(i.HAL_TIM_MspPostInit)
    i.HAL_TIM_OC_DelayElapsedCallback        0x08004140   Section        0  stm32f4xx_hal_tim.o(i.HAL_TIM_OC_DelayElapsedCallback)
    i.HAL_TIM_PWM_ConfigChannel              0x08004142   Section        0  stm32f4xx_hal_tim.o(i.HAL_TIM_PWM_ConfigChannel)
    i.HAL_TIM_PWM_Init                       0x08004212   Section        0  stm32f4xx_hal_tim.o(i.HAL_TIM_PWM_Init)
    i.HAL_TIM_PWM_MspInit                    0x08004248   Section        0  stm32f4xx_hal_tim.o(i.HAL_TIM_PWM_MspInit)
    i.HAL_TIM_PWM_PulseFinishedCallback      0x0800424a   Section        0  stm32f4xx_hal_tim.o(i.HAL_TIM_PWM_PulseFinishedCallback)
    i.HAL_TIM_PeriodElapsedCallback          0x0800424c   Section        0  stm32f4xx_hal_tim.o(i.HAL_TIM_PeriodElapsedCallback)
    i.HAL_TIM_TriggerCallback                0x0800424e   Section        0  stm32f4xx_hal_tim.o(i.HAL_TIM_TriggerCallback)
    i.HAL_UART_ErrorCallback                 0x08004250   Section        0  bsp_usart.o(i.HAL_UART_ErrorCallback)
    i.HAL_UART_IRQHandler                    0x08004264   Section        0  stm32f4xx_hal_uart.o(i.HAL_UART_IRQHandler)
    i.HAL_UART_Init                          0x08004378   Section        0  stm32f4xx_hal_uart.o(i.HAL_UART_Init)
    i.HAL_UART_MspInit                       0x080043dc   Section        0  usart.o(i.HAL_UART_MspInit)
    i.HAL_UART_Receive_DMA                   0x08004500   Section        0  stm32f4xx_hal_uart.o(i.HAL_UART_Receive_DMA)
    i.HAL_UART_Receive_IT                    0x08004598   Section        0  stm32f4xx_hal_uart.o(i.HAL_UART_Receive_IT)
    i.HAL_UART_RxCpltCallback                0x080045ec   Section        0  bsp_usart.o(i.HAL_UART_RxCpltCallback)
    i.HAL_UART_RxHalfCpltCallback            0x08004658   Section        0  stm32f4xx_hal_uart.o(i.HAL_UART_RxHalfCpltCallback)
    i.HAL_UART_Transmit_IT                   0x0800465a   Section        0  stm32f4xx_hal_uart.o(i.HAL_UART_Transmit_IT)
    i.HAL_UART_TxCpltCallback                0x08004698   Section        0  stm32f4xx_hal_uart.o(i.HAL_UART_TxCpltCallback)
    i.HardFault_Handler                      0x0800469a   Section        0  stm32f4xx_it.o(i.HardFault_Handler)
    i.JudgeData                              0x0800469c   Section        0  judge.o(i.JudgeData)
    i.MX_CAN1_Init                           0x080048c8   Section        0  can.o(i.MX_CAN1_Init)
    i.MX_CAN2_Init                           0x08004910   Section        0  can.o(i.MX_CAN2_Init)
    i.MX_DMA_Init                            0x0800495c   Section        0  dma.o(i.MX_DMA_Init)
    i.MX_FREERTOS_Init                       0x080049a8   Section        0  freertos.o(i.MX_FREERTOS_Init)
    i.MX_GPIO_Init                           0x08004a10   Section        0  gpio.o(i.MX_GPIO_Init)
    i.MX_SPI1_Init                           0x08004b84   Section        0  spi.o(i.MX_SPI1_Init)
    i.MX_TIM10_Init                          0x08004bcc   Section        0  tim.o(i.MX_TIM10_Init)
    i.MX_USART1_UART_Init                    0x08004c30   Section        0  usart.o(i.MX_USART1_UART_Init)
    i.MX_USART6_UART_Init                    0x08004c68   Section        0  usart.o(i.MX_USART6_UART_Init)
    i.MY_CAN_Init                            0x08004ca0   Section        0  bsp_can.o(i.MY_CAN_Init)
    i.MY_USART_Init                          0x08004cbc   Section        0  bsp_usart.o(i.MY_USART_Init)
    i.MemManage_Handler                      0x08004cec   Section        0  stm32f4xx_it.o(i.MemManage_Handler)
    i.NMI_Handler                            0x08004cee   Section        0  stm32f4xx_it.o(i.NMI_Handler)
    i.SPI_EndRxTxTransaction                 0x08004cf0   Section        0  stm32f4xx_hal_spi.o(i.SPI_EndRxTxTransaction)
    SPI_EndRxTxTransaction                   0x08004cf1   Thumb Code    80  stm32f4xx_hal_spi.o(i.SPI_EndRxTxTransaction)
    i.SPI_WaitFlagStateUntilTimeout          0x08004d48   Section        0  stm32f4xx_hal_spi.o(i.SPI_WaitFlagStateUntilTimeout)
    SPI_WaitFlagStateUntilTimeout            0x08004d49   Thumb Code   148  stm32f4xx_hal_spi.o(i.SPI_WaitFlagStateUntilTimeout)
    i.SplitStr                               0x08004ddc   Section        0  stmgood.o(i.SplitStr)
    i.StartDefaultTask                       0x08004e2c   Section        0  freertos.o(i.StartDefaultTask)
    i.StartTask02                            0x08004e36   Section        0  mytask02.o(i.StartTask02)
    i.StartTask03                            0x08004e44   Section        0  mytask03.o(i.StartTask03)
    i.StartTask04                            0x08004e70   Section        0  mytask04.o(i.StartTask04)
    i.Start_RM_Task                          0x08004e80   Section        0  rm_task.o(i.Start_RM_Task)
    i.Start_UI_Task                          0x08005040   Section        0  rm_task.o(i.Start_UI_Task)
    i.StrToFloat                             0x080051e4   Section        0  stmgood.o(i.StrToFloat)
    i.Strlen                                 0x08005318   Section        0  stmgood.o(i.Strlen)
    i.SubStr                                 0x08005328   Section        0  stmgood.o(i.SubStr)
    i.SysTick_Handler                        0x08005350   Section        0  stm32f4xx_it.o(i.SysTick_Handler)
    i.SystemClock_Config                     0x08005368   Section        0  main.o(i.SystemClock_Config)
    i.SystemInit                             0x080053ec   Section        0  system_stm32f4xx.o(i.SystemInit)
    i.TIM1_UP_TIM10_IRQHandler               0x08005440   Section        0  stm32f4xx_it.o(i.TIM1_UP_TIM10_IRQHandler)
    i.TIM_Base_SetConfig                     0x0800544c   Section        0  stm32f4xx_hal_tim.o(i.TIM_Base_SetConfig)
    i.TIM_OC1_SetConfig                      0x08005514   Section        0  stm32f4xx_hal_tim.o(i.TIM_OC1_SetConfig)
    TIM_OC1_SetConfig                        0x08005515   Thumb Code    88  stm32f4xx_hal_tim.o(i.TIM_OC1_SetConfig)
    i.TIM_OC2_SetConfig                      0x08005574   Section        0  stm32f4xx_hal_tim.o(i.TIM_OC2_SetConfig)
    i.TIM_OC3_SetConfig                      0x080055e0   Section        0  stm32f4xx_hal_tim.o(i.TIM_OC3_SetConfig)
    TIM_OC3_SetConfig                        0x080055e1   Thumb Code    96  stm32f4xx_hal_tim.o(i.TIM_OC3_SetConfig)
    i.TIM_OC4_SetConfig                      0x08005648   Section        0  stm32f4xx_hal_tim.o(i.TIM_OC4_SetConfig)
    TIM_OC4_SetConfig                        0x08005649   Thumb Code    70  stm32f4xx_hal_tim.o(i.TIM_OC4_SetConfig)
    i.Two_byte_send_id                       0x08005698   Section        0  judge.o(i.Two_byte_send_id)
    i.UART_DMAAbortOnError                   0x0800570c   Section        0  stm32f4xx_hal_uart.o(i.UART_DMAAbortOnError)
    UART_DMAAbortOnError                     0x0800570d   Thumb Code    16  stm32f4xx_hal_uart.o(i.UART_DMAAbortOnError)
    i.UART_DMAError                          0x0800571c   Section        0  stm32f4xx_hal_uart.o(i.UART_DMAError)
    UART_DMAError                            0x0800571d   Thumb Code    74  stm32f4xx_hal_uart.o(i.UART_DMAError)
    i.UART_DMAReceiveCplt                    0x08005766   Section        0  stm32f4xx_hal_uart.o(i.UART_DMAReceiveCplt)
    UART_DMAReceiveCplt                      0x08005767   Thumb Code    60  stm32f4xx_hal_uart.o(i.UART_DMAReceiveCplt)
    i.UART_DMARxHalfCplt                     0x080057a2   Section        0  stm32f4xx_hal_uart.o(i.UART_DMARxHalfCplt)
    UART_DMARxHalfCplt                       0x080057a3   Thumb Code    10  stm32f4xx_hal_uart.o(i.UART_DMARxHalfCplt)
    i.UART_EndRxTransfer                     0x080057ac   Section        0  stm32f4xx_hal_uart.o(i.UART_EndRxTransfer)
    UART_EndRxTransfer                       0x080057ad   Thumb Code    28  stm32f4xx_hal_uart.o(i.UART_EndRxTransfer)
    i.UART_EndTxTransfer                     0x080057c8   Section        0  stm32f4xx_hal_uart.o(i.UART_EndTxTransfer)
    UART_EndTxTransfer                       0x080057c9   Thumb Code    18  stm32f4xx_hal_uart.o(i.UART_EndTxTransfer)
    i.UART_Receive_IT                        0x080057da   Section        0  stm32f4xx_hal_uart.o(i.UART_Receive_IT)
    UART_Receive_IT                          0x080057db   Thumb Code   150  stm32f4xx_hal_uart.o(i.UART_Receive_IT)
    i.UART_SetConfig                         0x08005870   Section        0  stm32f4xx_hal_uart.o(i.UART_SetConfig)
    UART_SetConfig                           0x08005871   Thumb Code   286  stm32f4xx_hal_uart.o(i.UART_SetConfig)
    i.UART_Transmit_IT                       0x08005998   Section        0  stm32f4xx_hal_uart.o(i.UART_Transmit_IT)
    UART_Transmit_IT                         0x08005999   Thumb Code    98  stm32f4xx_hal_uart.o(i.UART_Transmit_IT)
    i.USART1_IRQHandler                      0x080059fc   Section        0  stm32f4xx_it.o(i.USART1_IRQHandler)
    i.USART6_IRQHandler                      0x08005a08   Section        0  stm32f4xx_it.o(i.USART6_IRQHandler)
    i.USART_Enable                           0x08005a14   Section        0  bsp_usart.o(i.USART_Enable)
    i.UsageFault_Handler                     0x08005a2a   Section        0  stm32f4xx_it.o(i.UsageFault_Handler)
    i.Verify_CRC16_Check_Sum                 0x08005a2c   Section        0  crc.o(i.Verify_CRC16_Check_Sum)
    i.Verify_CRC8_Check_Sum                  0x08005a68   Section        0  crc.o(i.Verify_CRC8_Check_Sum)
    i.__0printf                              0x08005a90   Section        0  printfa.o(i.__0printf)
    i.__NVIC_SetPriority                     0x08005ab0   Section        0  stm32f4xx_hal_cortex.o(i.__NVIC_SetPriority)
    __NVIC_SetPriority                       0x08005ab1   Thumb Code    32  stm32f4xx_hal_cortex.o(i.__NVIC_SetPriority)
    i.__scatterload_copy                     0x08005ad0   Section       14  handlers.o(i.__scatterload_copy)
    i.__scatterload_null                     0x08005ade   Section        2  handlers.o(i.__scatterload_null)
    i.__scatterload_zeroinit                 0x08005ae0   Section       14  handlers.o(i.__scatterload_zeroinit)
    i._fp_digits                             0x08005af0   Section        0  printfa.o(i._fp_digits)
    _fp_digits                               0x08005af1   Thumb Code   366  printfa.o(i._fp_digits)
    i._printf_core                           0x08005c74   Section        0  printfa.o(i._printf_core)
    _printf_core                             0x08005c75   Thumb Code  1704  printfa.o(i._printf_core)
    i._printf_post_padding                   0x08006328   Section        0  printfa.o(i._printf_post_padding)
    _printf_post_padding                     0x08006329   Thumb Code    36  printfa.o(i._printf_post_padding)
    i._printf_pre_padding                    0x0800634c   Section        0  printfa.o(i._printf_pre_padding)
    _printf_pre_padding                      0x0800634d   Thumb Code    46  printfa.o(i._printf_pre_padding)
    i.bmi088_accel_init                      0x0800637c   Section        0  bmi088driver.o(i.bmi088_accel_init)
    i.bmi088_gyro_init                       0x0800648c   Section        0  bmi088driver.o(i.bmi088_gyro_init)
    i.cmd                                    0x08006568   Section        0  stmgood.o(i.cmd)
    i.fputc                                  0x0800663c   Section        0  bsp_usart.o(i.fputc)
    i.main                                   0x08006650   Section        0  main.o(i.main)
    i.makeFreeRtosPriority                   0x08006692   Section        0  cmsis_os.o(i.makeFreeRtosPriority)
    makeFreeRtosPriority                     0x08006693   Thumb Code    12  cmsis_os.o(i.makeFreeRtosPriority)
    i.multi1                                 0x080066a0   Section        0  stmgood.o(i.multi1)
    i.multi2                                 0x0800670c   Section        0  stmgood.o(i.multi2)
    i.osDelay                                0x08006764   Section        0  cmsis_os.o(i.osDelay)
    i.osKernelStart                          0x08006772   Section        0  cmsis_os.o(i.osKernelStart)
    i.osThreadCreate                         0x0800677c   Section        0  cmsis_os.o(i.osThreadCreate)
    i.prvAddCurrentTaskToDelayedList         0x080067d0   Section        0  tasks.o(i.prvAddCurrentTaskToDelayedList)
    prvAddCurrentTaskToDelayedList           0x080067d1   Thumb Code   102  tasks.o(i.prvAddCurrentTaskToDelayedList)
    i.prvAddNewTaskToReadyList               0x08006840   Section        0  tasks.o(i.prvAddNewTaskToReadyList)
    prvAddNewTaskToReadyList                 0x08006841   Thumb Code   196  tasks.o(i.prvAddNewTaskToReadyList)
    i.prvCheckForValidListAndQueue           0x08006910   Section        0  timers.o(i.prvCheckForValidListAndQueue)
    prvCheckForValidListAndQueue             0x08006911   Thumb Code    72  timers.o(i.prvCheckForValidListAndQueue)
    i.prvCopyDataFromQueue                   0x08006968   Section        0  queue.o(i.prvCopyDataFromQueue)
    prvCopyDataFromQueue                     0x08006969   Thumb Code    38  queue.o(i.prvCopyDataFromQueue)
    i.prvCopyDataToQueue                     0x0800698e   Section        0  queue.o(i.prvCopyDataToQueue)
    prvCopyDataToQueue                       0x0800698f   Thumb Code   108  queue.o(i.prvCopyDataToQueue)
    i.prvDeleteTCB                           0x080069fa   Section        0  tasks.o(i.prvDeleteTCB)
    prvDeleteTCB                             0x080069fb   Thumb Code    52  tasks.o(i.prvDeleteTCB)
    i.prvHeapInit                            0x08006a30   Section        0  heap_4.o(i.prvHeapInit)
    prvHeapInit                              0x08006a31   Thumb Code    66  heap_4.o(i.prvHeapInit)
    i.prvIdleTask                            0x08006a7c   Section        0  tasks.o(i.prvIdleTask)
    prvIdleTask                              0x08006a7d   Thumb Code    82  tasks.o(i.prvIdleTask)
    i.prvInitialiseNewQueue                  0x08006adc   Section        0  queue.o(i.prvInitialiseNewQueue)
    prvInitialiseNewQueue                    0x08006add   Thumb Code    34  queue.o(i.prvInitialiseNewQueue)
    i.prvInitialiseNewTask                   0x08006b00   Section        0  tasks.o(i.prvInitialiseNewTask)
    prvInitialiseNewTask                     0x08006b01   Thumb Code   176  tasks.o(i.prvInitialiseNewTask)
    i.prvInsertBlockIntoFreeList             0x08006bb0   Section        0  heap_4.o(i.prvInsertBlockIntoFreeList)
    prvInsertBlockIntoFreeList               0x08006bb1   Thumb Code    72  heap_4.o(i.prvInsertBlockIntoFreeList)
    i.prvInsertTimerInActiveList             0x08006bfc   Section        0  timers.o(i.prvInsertTimerInActiveList)
    prvInsertTimerInActiveList               0x08006bfd   Thumb Code    52  timers.o(i.prvInsertTimerInActiveList)
    i.prvIsQueueEmpty                        0x08006c34   Section        0  queue.o(i.prvIsQueueEmpty)
    prvIsQueueEmpty                          0x08006c35   Thumb Code    28  queue.o(i.prvIsQueueEmpty)
    i.prvProcessReceivedCommands             0x08006c50   Section        0  timers.o(i.prvProcessReceivedCommands)
    prvProcessReceivedCommands               0x08006c51   Thumb Code   234  timers.o(i.prvProcessReceivedCommands)
    i.prvProcessTimerOrBlockTask             0x08006d40   Section        0  timers.o(i.prvProcessTimerOrBlockTask)
    prvProcessTimerOrBlockTask               0x08006d41   Thumb Code   182  timers.o(i.prvProcessTimerOrBlockTask)
    i.prvResetNextTaskUnblockTime            0x08006e00   Section        0  tasks.o(i.prvResetNextTaskUnblockTime)
    prvResetNextTaskUnblockTime              0x08006e01   Thumb Code    26  tasks.o(i.prvResetNextTaskUnblockTime)
    i.prvSampleTimeNow                       0x08006e20   Section        0  timers.o(i.prvSampleTimeNow)
    prvSampleTimeNow                         0x08006e21   Thumb Code    36  timers.o(i.prvSampleTimeNow)
    i.prvSwitchTimerLists                    0x08006e48   Section        0  timers.o(i.prvSwitchTimerLists)
    prvSwitchTimerLists                      0x08006e49   Thumb Code   104  timers.o(i.prvSwitchTimerLists)
    i.prvTaskExitError                       0x08006eb4   Section        0  port.o(i.prvTaskExitError)
    prvTaskExitError                         0x08006eb5   Thumb Code    36  port.o(i.prvTaskExitError)
    i.prvTimerTask                           0x08006edc   Section        0  timers.o(i.prvTimerTask)
    prvTimerTask                             0x08006edd   Thumb Code    32  timers.o(i.prvTimerTask)
    i.prvUnlockQueue                         0x08006f00   Section        0  queue.o(i.prvUnlockQueue)
    prvUnlockQueue                           0x08006f01   Thumb Code   106  queue.o(i.prvUnlockQueue)
    i.pvPortMalloc                           0x08006f6c   Section        0  heap_4.o(i.pvPortMalloc)
    i.pxPortInitialiseStack                  0x08007044   Section        0  port.o(i.pxPortInitialiseStack)
    i.uxListRemove                           0x08007070   Section        0  list.o(i.uxListRemove)
    i.vApplicationGetIdleTaskMemory          0x08007098   Section        0  freertos.o(i.vApplicationGetIdleTaskMemory)
    i.vApplicationGetTimerTaskMemory         0x080070ac   Section        0  freertos.o(i.vApplicationGetTimerTaskMemory)
    i.vApplicationStackOverflowHook          0x080070c0   Section        0  freertos.o(i.vApplicationStackOverflowHook)
    i.vListInitialise                        0x080070c2   Section        0  list.o(i.vListInitialise)
    i.vListInitialiseItem                    0x080070d8   Section        0  list.o(i.vListInitialiseItem)
    i.vListInsert                            0x080070de   Section        0  list.o(i.vListInsert)
    i.vListInsertEnd                         0x0800710e   Section        0  list.o(i.vListInsertEnd)
    i.vPortEnterCritical                     0x08007128   Section        0  port.o(i.vPortEnterCritical)
    i.vPortExitCritical                      0x08007168   Section        0  port.o(i.vPortExitCritical)
    i.vPortFree                              0x08007190   Section        0  heap_4.o(i.vPortFree)
    i.vPortSetupTimerInterrupt               0x080071ec   Section        0  port.o(i.vPortSetupTimerInterrupt)
    i.vPortValidateInterruptPriority         0x08007210   Section        0  port.o(i.vPortValidateInterruptPriority)
    i.vQueueAddToRegistry                    0x08007264   Section        0  queue.o(i.vQueueAddToRegistry)
    i.vQueueWaitForMessageRestricted         0x0800728c   Section        0  queue.o(i.vQueueWaitForMessageRestricted)
    i.vTaskDelay                             0x080072d0   Section        0  tasks.o(i.vTaskDelay)
    i.vTaskInternalSetTimeOutState           0x0800731c   Section        0  tasks.o(i.vTaskInternalSetTimeOutState)
    i.vTaskMissedYield                       0x0800732c   Section        0  tasks.o(i.vTaskMissedYield)
    i.vTaskPlaceOnEventList                  0x08007338   Section        0  tasks.o(i.vTaskPlaceOnEventList)
    i.vTaskPlaceOnEventListRestricted        0x08007368   Section        0  tasks.o(i.vTaskPlaceOnEventListRestricted)
    i.vTaskStartScheduler                    0x080073a0   Section        0  tasks.o(i.vTaskStartScheduler)
    i.vTaskSuspendAll                        0x08007428   Section        0  tasks.o(i.vTaskSuspendAll)
    i.vTaskSwitchContext                     0x08007438   Section        0  tasks.o(i.vTaskSwitchContext)
    i.xPortStartScheduler                    0x080074ac   Section        0  port.o(i.xPortStartScheduler)
    i.xPortSysTickHandler                    0x080075a0   Section        0  port.o(i.xPortSysTickHandler)
    i.xQueueGenericCreateStatic              0x080075cc   Section        0  queue.o(i.xQueueGenericCreateStatic)
    i.xQueueGenericReset                     0x08007634   Section        0  queue.o(i.xQueueGenericReset)
    i.xQueueGenericSend                      0x080076bc   Section        0  queue.o(i.xQueueGenericSend)
    i.xQueueGenericSendFromISR               0x0800781c   Section        0  queue.o(i.xQueueGenericSendFromISR)
    i.xQueueReceive                          0x080078d8   Section        0  queue.o(i.xQueueReceive)
    i.xTaskCheckForTimeOut                   0x08007a10   Section        0  tasks.o(i.xTaskCheckForTimeOut)
    i.xTaskCreate                            0x08007a84   Section        0  tasks.o(i.xTaskCreate)
    i.xTaskCreateStatic                      0x08007ade   Section        0  tasks.o(i.xTaskCreateStatic)
    i.xTaskGetSchedulerState                 0x08007b34   Section        0  tasks.o(i.xTaskGetSchedulerState)
    i.xTaskGetTickCount                      0x08007b50   Section        0  tasks.o(i.xTaskGetTickCount)
    i.xTaskIncrementTick                     0x08007b5c   Section        0  tasks.o(i.xTaskIncrementTick)
    i.xTaskPriorityDisinherit                0x08007c24   Section        0  tasks.o(i.xTaskPriorityDisinherit)
    i.xTaskRemoveFromEventList               0x08007cbc   Section        0  tasks.o(i.xTaskRemoveFromEventList)
    i.xTaskResumeAll                         0x08007d30   Section        0  tasks.o(i.xTaskResumeAll)
    i.xTimerCreateTimerTask                  0x08007df4   Section        0  timers.o(i.xTimerCreateTimerTask)
    i.xTimerGenericCommand                   0x08007e54   Section        0  timers.o(i.xTimerGenericCommand)
    .constdata                               0x08007eb4   Section      112  freertos.o(.constdata)
    .constdata                               0x08007f24   Section        8  stm32f4xx_hal_dma.o(.constdata)
    flagBitshiftOffset                       0x08007f24   Data           8  stm32f4xx_hal_dma.o(.constdata)
    .constdata                               0x08007f2c   Section       16  system_stm32f4xx.o(.constdata)
    .constdata                               0x08007f3c   Section        8  system_stm32f4xx.o(.constdata)
    .constdata                               0x08007f44   Section      768  crc.o(.constdata)
    .conststring                             0x08008244   Section       48  freertos.o(.conststring)
    .conststring                             0x08008274   Section      206  judge.o(.conststring)
    .data                                    0x20000000   Section       16  freertos.o(.data)
    .data                                    0x20000010   Section        4  can.o(.data)
    HAL_RCC_CAN1_CLK_ENABLED                 0x20000010   Data           4  can.o(.data)
    .data                                    0x20000014   Section       12  stm32f4xx_hal.o(.data)
    .data                                    0x20000020   Section        4  system_stm32f4xx.o(.data)
    .data                                    0x20000024   Section        1  bsp_usart.o(.data)
    .data                                    0x20000028   Section       72  stmgood.o(.data)
    .data                                    0x20000070   Section        2  crc.o(.data)
    .data                                    0x20000074   Section      172  judge.o(.data)
    packindex                                0x20000075   Data           1  judge.o(.data)
    seq                                      0x20000076   Data           1  judge.o(.data)
    seq                                      0x20000077   Data           1  judge.o(.data)
    seq                                      0x20000078   Data           1  judge.o(.data)
    seq                                      0x20000079   Data           1  judge.o(.data)
    seq                                      0x2000007a   Data           1  judge.o(.data)
    seq                                      0x2000007b   Data           1  judge.o(.data)
    seq                                      0x2000007c   Data           1  judge.o(.data)
    seq                                      0x2000007d   Data           1  judge.o(.data)
    seq                                      0x2000007e   Data           1  judge.o(.data)
    seq                                      0x2000007f   Data           1  judge.o(.data)
    seq                                      0x20000080   Data           1  judge.o(.data)
    seq                                      0x20000081   Data           1  judge.o(.data)
    seq                                      0x20000082   Data           1  judge.o(.data)
    seq                                      0x20000083   Data           1  judge.o(.data)
    seq                                      0x20000084   Data           1  judge.o(.data)
    datalength                               0x20000088   Data           2  judge.o(.data)
    name_Crosshair                           0x2000008a   Data           2  judge.o(.data)
    name_Crosshair1                          0x2000008c   Data           2  judge.o(.data)
    name_FloatDataShow                       0x2000008e   Data           2  judge.o(.data)
    name_Rectangle                           0x20000090   Data           2  judge.o(.data)
    HeaderIndex                              0x200000a8   Data           4  judge.o(.data)
    dataIndex                                0x200000ac   Data           4  judge.o(.data)
    InfoStartReceive                         0x200000b0   Data           4  judge.o(.data)
    .data                                    0x20000120   Section        4  judge.o(.data)
    .data                                    0x20000124   Section       20  rm_task.o(.data)
    blinkCount                               0x20000124   Data           1  rm_task.o(.data)
    isInit                                   0x20000125   Data           1  rm_task.o(.data)
    .data                                    0x20000138   Section       60  tasks.o(.data)
    pxDelayedTaskList                        0x2000013c   Data           4  tasks.o(.data)
    pxOverflowDelayedTaskList                0x20000140   Data           4  tasks.o(.data)
    uxDeletedTasksWaitingCleanUp             0x20000144   Data           4  tasks.o(.data)
    uxCurrentNumberOfTasks                   0x20000148   Data           4  tasks.o(.data)
    xTickCount                               0x2000014c   Data           4  tasks.o(.data)
    uxTopReadyPriority                       0x20000150   Data           4  tasks.o(.data)
    xSchedulerRunning                        0x20000154   Data           4  tasks.o(.data)
    uxPendedTicks                            0x20000158   Data           4  tasks.o(.data)
    xYieldPending                            0x2000015c   Data           4  tasks.o(.data)
    xNumOfOverflows                          0x20000160   Data           4  tasks.o(.data)
    uxTaskNumber                             0x20000164   Data           4  tasks.o(.data)
    xNextTaskUnblockTime                     0x20000168   Data           4  tasks.o(.data)
    xIdleTaskHandle                          0x2000016c   Data           4  tasks.o(.data)
    uxSchedulerSuspended                     0x20000170   Data           4  tasks.o(.data)
    .data                                    0x20000174   Section       20  timers.o(.data)
    pxCurrentTimerList                       0x20000174   Data           4  timers.o(.data)
    pxOverflowTimerList                      0x20000178   Data           4  timers.o(.data)
    xTimerQueue                              0x2000017c   Data           4  timers.o(.data)
    xTimerTaskHandle                         0x20000180   Data           4  timers.o(.data)
    xLastTime                                0x20000184   Data           4  timers.o(.data)
    .data                                    0x20000188   Section       24  heap_4.o(.data)
    pxEnd                                    0x20000188   Data           4  heap_4.o(.data)
    xFreeBytesRemaining                      0x2000018c   Data           4  heap_4.o(.data)
    xMinimumEverFreeBytesRemaining           0x20000190   Data           4  heap_4.o(.data)
    xBlockAllocatedBit                       0x20000194   Data           4  heap_4.o(.data)
    xStart                                   0x20000198   Data           8  heap_4.o(.data)
    .data                                    0x200001a0   Section       12  port.o(.data)
    ucMaxSysCallPriority                     0x200001a0   Data           1  port.o(.data)
    uxCriticalNesting                        0x200001a4   Data           4  port.o(.data)
    ulMaxPRIGROUPValue                       0x200001a8   Data           4  port.o(.data)
    .data                                    0x200001ac   Section        8  mytask03.o(.data)
    .data                                    0x200001b4   Section       44  bmi088driver.o(.data)
    write_BMI088_accel_reg_data_error        0x200001bc   Data          18  bmi088driver.o(.data)
    write_BMI088_gyro_reg_data_error         0x200001ce   Data          18  bmi088driver.o(.data)
    .data                                    0x200001e0   Section        4  stdout.o(.data)
    .bss                                     0x200001e4   Section     1208  freertos.o(.bss)
    xIdleTaskTCBBuffer                       0x200001e4   Data          92  freertos.o(.bss)
    xIdleStack                               0x20000240   Data         512  freertos.o(.bss)
    xTimerTaskTCBBuffer                      0x20000440   Data          92  freertos.o(.bss)
    xTimerStack                              0x2000049c   Data         512  freertos.o(.bss)
    .bss                                     0x2000069c   Section       80  can.o(.bss)
    .bss                                     0x200006ec   Section      280  spi.o(.bss)
    .bss                                     0x20000804   Section       64  tim.o(.bss)
    .bss                                     0x20000844   Section      224  usart.o(.bss)
    .bss                                     0x20000924   Section       36  bsp_can.o(.bss)
    .bss                                     0x20000948   Section       30  bsp_usart.o(.bss)
    .bss                                     0x20000968   Section     1104  stmgood.o(.bss)
    .bss                                     0x20000db8   Section     2422  judge.o(.bss)
    .bss                                     0x20001730   Section       64  queue.o(.bss)
    .bss                                     0x20001770   Section      240  tasks.o(.bss)
    pxReadyTasksLists                        0x20001770   Data         140  tasks.o(.bss)
    xDelayedTaskList1                        0x200017fc   Data          20  tasks.o(.bss)
    xDelayedTaskList2                        0x20001810   Data          20  tasks.o(.bss)
    xPendingReadyList                        0x20001824   Data          20  tasks.o(.bss)
    xTasksWaitingTermination                 0x20001838   Data          20  tasks.o(.bss)
    xSuspendedTaskList                       0x2000184c   Data          20  tasks.o(.bss)
    .bss                                     0x20001860   Section      240  timers.o(.bss)
    xActiveTimerList1                        0x20001860   Data          20  timers.o(.bss)
    xActiveTimerList2                        0x20001874   Data          20  timers.o(.bss)
    xStaticTimerQueue                        0x20001888   Data          80  timers.o(.bss)
    ucStaticTimerQueueStorage                0x200018d8   Data         120  timers.o(.bss)
    .bss                                     0x20001950   Section     8000  heap_4.o(.bss)
    ucHeap                                   0x20001950   Data        8000  heap_4.o(.bss)
    .bss                                     0x20003890   Section       24  mytask03.o(.bss)
    STACK                                    0x200038a8   Section     1024  startup_stm32f407xx.o(STACK)

    Global Symbols

    Symbol Name                              Value     Ov Type        Size  Object(Section)

    BuildAttributes$$THM_ISAv4$E$P$D$K$B$S$7EM$VFPi3$EXTD16$VFPS$VFMA$PE$A:L22UL41UL21$X:L11$S22US41US21$IEEE1$IW$USESV6$~STKCKD$USESV7$~SHL$OTIME$ROPI$EBA8$MICROLIB$REQ8$PRES8$EABIv2 0x00000000   Number         0  anon$$obj.o ABSOLUTE
    __ARM_use_no_argv                        0x00000000   Number         0  main.o ABSOLUTE
    _printf_a                                0x00000000   Number         0  stubs.o ABSOLUTE
    _printf_c                                0x00000000   Number         0  stubs.o ABSOLUTE
    _printf_charcount                        0x00000000   Number         0  stubs.o ABSOLUTE
    _printf_d                                0x00000000   Number         0  stubs.o ABSOLUTE
    _printf_e                                0x00000000   Number         0  stubs.o ABSOLUTE
    _printf_f                                0x00000000   Number         0  stubs.o ABSOLUTE
    _printf_flags                            0x00000000   Number         0  stubs.o ABSOLUTE
    _printf_fp_dec                           0x00000000   Number         0  stubs.o ABSOLUTE
    _printf_fp_hex                           0x00000000   Number         0  stubs.o ABSOLUTE
    _printf_g                                0x00000000   Number         0  stubs.o ABSOLUTE
    _printf_i                                0x00000000   Number         0  stubs.o ABSOLUTE
    _printf_int_dec                          0x00000000   Number         0  stubs.o ABSOLUTE
    _printf_l                                0x00000000   Number         0  stubs.o ABSOLUTE
    _printf_lc                               0x00000000   Number         0  stubs.o ABSOLUTE
    _printf_ll                               0x00000000   Number         0  stubs.o ABSOLUTE
    _printf_lld                              0x00000000   Number         0  stubs.o ABSOLUTE
    _printf_lli                              0x00000000   Number         0  stubs.o ABSOLUTE
    _printf_llo                              0x00000000   Number         0  stubs.o ABSOLUTE
    _printf_llu                              0x00000000   Number         0  stubs.o ABSOLUTE
    _printf_llx                              0x00000000   Number         0  stubs.o ABSOLUTE
    _printf_longlong_dec                     0x00000000   Number         0  stubs.o ABSOLUTE
    _printf_longlong_hex                     0x00000000   Number         0  stubs.o ABSOLUTE
    _printf_longlong_oct                     0x00000000   Number         0  stubs.o ABSOLUTE
    _printf_ls                               0x00000000   Number         0  stubs.o ABSOLUTE
    _printf_mbtowc                           0x00000000   Number         0  stubs.o ABSOLUTE
    _printf_n                                0x00000000   Number         0  stubs.o ABSOLUTE
    _printf_o                                0x00000000   Number         0  stubs.o ABSOLUTE
    _printf_p                                0x00000000   Number         0  stubs.o ABSOLUTE
    _printf_percent                          0x00000000   Number         0  stubs.o ABSOLUTE
    _printf_pre_padding                      0x00000000   Number         0  stubs.o ABSOLUTE
    _printf_return_value                     0x00000000   Number         0  stubs.o ABSOLUTE
    _printf_s                                0x00000000   Number         0  stubs.o ABSOLUTE
    _printf_sizespec                         0x00000000   Number         0  stubs.o ABSOLUTE
    _printf_str                              0x00000000   Number         0  stubs.o ABSOLUTE
    _printf_truncate_signed                  0x00000000   Number         0  stubs.o ABSOLUTE
    _printf_truncate_unsigned                0x00000000   Number         0  stubs.o ABSOLUTE
    _printf_u                                0x00000000   Number         0  stubs.o ABSOLUTE
    _printf_wc                               0x00000000   Number         0  stubs.o ABSOLUTE
    _printf_wctomb                           0x00000000   Number         0  stubs.o ABSOLUTE
    _printf_widthprec                        0x00000000   Number         0  stubs.o ABSOLUTE
    _printf_x                                0x00000000   Number         0  stubs.o ABSOLUTE
    __arm_fini_                               - Undefined Weak Reference
    __cpp_initialize__aeabi_                  - Undefined Weak Reference
    __cxa_finalize                            - Undefined Weak Reference
    _clock_init                               - Undefined Weak Reference
    _microlib_exit                            - Undefined Weak Reference
    __Vectors_Size                           0x00000188   Number         0  startup_stm32f407xx.o ABSOLUTE
    __Vectors                                0x08000000   Data           4  startup_stm32f407xx.o(RESET)
    __Vectors_End                            0x08000188   Data           0  startup_stm32f407xx.o(RESET)
    __main                                   0x08000189   Thumb Code     0  entry.o(.ARM.Collect$$$$00000000)
    _main_stk                                0x08000189   Thumb Code     0  entry2.o(.ARM.Collect$$$$00000001)
    _main_scatterload                        0x0800018d   Thumb Code     0  entry5.o(.ARM.Collect$$$$00000004)
    __main_after_scatterload                 0x08000191   Thumb Code     0  entry5.o(.ARM.Collect$$$$00000004)
    _main_clock                              0x08000191   Thumb Code     0  entry7b.o(.ARM.Collect$$$$00000008)
    _main_cpp_init                           0x08000191   Thumb Code     0  entry8b.o(.ARM.Collect$$$$0000000A)
    _main_init                               0x08000191   Thumb Code     0  entry9a.o(.ARM.Collect$$$$0000000B)
    __rt_lib_shutdown_fini                   0x08000199   Thumb Code     0  entry12b.o(.ARM.Collect$$$$0000000E)
    __rt_final_cpp                           0x0800019d   Thumb Code     0  entry10a.o(.ARM.Collect$$$$0000000F)
    __rt_final_exit                          0x0800019d   Thumb Code     0  entry11a.o(.ARM.Collect$$$$00000011)
    SVC_Handler                              0x080001a1   Thumb Code    28  port.o(.emb_text)
    __asm___6_port_c_39a90d8d__prvStartFirstTask 0x080001c1   Thumb Code    36  port.o(.emb_text)
    __asm___6_port_c_39a90d8d__prvEnableVFP  0x080001e9   Thumb Code    16  port.o(.emb_text)
    PendSV_Handler                           0x080001fd   Thumb Code    88  port.o(.emb_text)
    vPortGetIPSR                             0x08000259   Thumb Code     6  port.o(.emb_text)
    Reset_Handler                            0x08000261   Thumb Code     8  startup_stm32f407xx.o(.text)
    ADC_IRQHandler                           0x0800027b   Thumb Code     0  startup_stm32f407xx.o(.text)
    CAN1_RX1_IRQHandler                      0x0800027b   Thumb Code     0  startup_stm32f407xx.o(.text)
    CAN1_SCE_IRQHandler                      0x0800027b   Thumb Code     0  startup_stm32f407xx.o(.text)
    CAN2_RX1_IRQHandler                      0x0800027b   Thumb Code     0  startup_stm32f407xx.o(.text)
    CAN2_SCE_IRQHandler                      0x0800027b   Thumb Code     0  startup_stm32f407xx.o(.text)
    DCMI_IRQHandler                          0x0800027b   Thumb Code     0  startup_stm32f407xx.o(.text)
    DMA1_Stream0_IRQHandler                  0x0800027b   Thumb Code     0  startup_stm32f407xx.o(.text)
    DMA1_Stream1_IRQHandler                  0x0800027b   Thumb Code     0  startup_stm32f407xx.o(.text)
    DMA1_Stream2_IRQHandler                  0x0800027b   Thumb Code     0  startup_stm32f407xx.o(.text)
    DMA1_Stream3_IRQHandler                  0x0800027b   Thumb Code     0  startup_stm32f407xx.o(.text)
    DMA1_Stream4_IRQHandler                  0x0800027b   Thumb Code     0  startup_stm32f407xx.o(.text)
    DMA1_Stream5_IRQHandler                  0x0800027b   Thumb Code     0  startup_stm32f407xx.o(.text)
    DMA1_Stream6_IRQHandler                  0x0800027b   Thumb Code     0  startup_stm32f407xx.o(.text)
    DMA1_Stream7_IRQHandler                  0x0800027b   Thumb Code     0  startup_stm32f407xx.o(.text)
    DMA2_Stream0_IRQHandler                  0x0800027b   Thumb Code     0  startup_stm32f407xx.o(.text)
    DMA2_Stream4_IRQHandler                  0x0800027b   Thumb Code     0  startup_stm32f407xx.o(.text)
    DMA2_Stream5_IRQHandler                  0x0800027b   Thumb Code     0  startup_stm32f407xx.o(.text)
    DMA2_Stream6_IRQHandler                  0x0800027b   Thumb Code     0  startup_stm32f407xx.o(.text)
    DMA2_Stream7_IRQHandler                  0x0800027b   Thumb Code     0  startup_stm32f407xx.o(.text)
    ETH_IRQHandler                           0x0800027b   Thumb Code     0  startup_stm32f407xx.o(.text)
    ETH_WKUP_IRQHandler                      0x0800027b   Thumb Code     0  startup_stm32f407xx.o(.text)
    EXTI0_IRQHandler                         0x0800027b   Thumb Code     0  startup_stm32f407xx.o(.text)
    EXTI15_10_IRQHandler                     0x0800027b   Thumb Code     0  startup_stm32f407xx.o(.text)
    EXTI1_IRQHandler                         0x0800027b   Thumb Code     0  startup_stm32f407xx.o(.text)
    EXTI2_IRQHandler                         0x0800027b   Thumb Code     0  startup_stm32f407xx.o(.text)
    EXTI3_IRQHandler                         0x0800027b   Thumb Code     0  startup_stm32f407xx.o(.text)
    FLASH_IRQHandler                         0x0800027b   Thumb Code     0  startup_stm32f407xx.o(.text)
    FMC_IRQHandler                           0x0800027b   Thumb Code     0  startup_stm32f407xx.o(.text)
    FPU_IRQHandler                           0x0800027b   Thumb Code     0  startup_stm32f407xx.o(.text)
    HASH_RNG_IRQHandler                      0x0800027b   Thumb Code     0  startup_stm32f407xx.o(.text)
    I2C1_ER_IRQHandler                       0x0800027b   Thumb Code     0  startup_stm32f407xx.o(.text)
    I2C1_EV_IRQHandler                       0x0800027b   Thumb Code     0  startup_stm32f407xx.o(.text)
    I2C2_ER_IRQHandler                       0x0800027b   Thumb Code     0  startup_stm32f407xx.o(.text)
    I2C2_EV_IRQHandler                       0x0800027b   Thumb Code     0  startup_stm32f407xx.o(.text)
    I2C3_ER_IRQHandler                       0x0800027b   Thumb Code     0  startup_stm32f407xx.o(.text)
    I2C3_EV_IRQHandler                       0x0800027b   Thumb Code     0  startup_stm32f407xx.o(.text)
    OTG_FS_IRQHandler                        0x0800027b   Thumb Code     0  startup_stm32f407xx.o(.text)
    OTG_FS_WKUP_IRQHandler                   0x0800027b   Thumb Code     0  startup_stm32f407xx.o(.text)
    OTG_HS_EP1_IN_IRQHandler                 0x0800027b   Thumb Code     0  startup_stm32f407xx.o(.text)
    OTG_HS_EP1_OUT_IRQHandler                0x0800027b   Thumb Code     0  startup_stm32f407xx.o(.text)
    OTG_HS_IRQHandler                        0x0800027b   Thumb Code     0  startup_stm32f407xx.o(.text)
    OTG_HS_WKUP_IRQHandler                   0x0800027b   Thumb Code     0  startup_stm32f407xx.o(.text)
    PVD_IRQHandler                           0x0800027b   Thumb Code     0  startup_stm32f407xx.o(.text)
    RCC_IRQHandler                           0x0800027b   Thumb Code     0  startup_stm32f407xx.o(.text)
    RTC_Alarm_IRQHandler                     0x0800027b   Thumb Code     0  startup_stm32f407xx.o(.text)
    RTC_WKUP_IRQHandler                      0x0800027b   Thumb Code     0  startup_stm32f407xx.o(.text)
    SDIO_IRQHandler                          0x0800027b   Thumb Code     0  startup_stm32f407xx.o(.text)
    SPI1_IRQHandler                          0x0800027b   Thumb Code     0  startup_stm32f407xx.o(.text)
    SPI2_IRQHandler                          0x0800027b   Thumb Code     0  startup_stm32f407xx.o(.text)
    SPI3_IRQHandler                          0x0800027b   Thumb Code     0  startup_stm32f407xx.o(.text)
    TAMP_STAMP_IRQHandler                    0x0800027b   Thumb Code     0  startup_stm32f407xx.o(.text)
    TIM1_BRK_TIM9_IRQHandler                 0x0800027b   Thumb Code     0  startup_stm32f407xx.o(.text)
    TIM1_CC_IRQHandler                       0x0800027b   Thumb Code     0  startup_stm32f407xx.o(.text)
    TIM1_TRG_COM_TIM11_IRQHandler            0x0800027b   Thumb Code     0  startup_stm32f407xx.o(.text)
    TIM2_IRQHandler                          0x0800027b   Thumb Code     0  startup_stm32f407xx.o(.text)
    TIM3_IRQHandler                          0x0800027b   Thumb Code     0  startup_stm32f407xx.o(.text)
    TIM4_IRQHandler                          0x0800027b   Thumb Code     0  startup_stm32f407xx.o(.text)
    TIM5_IRQHandler                          0x0800027b   Thumb Code     0  startup_stm32f407xx.o(.text)
    TIM6_DAC_IRQHandler                      0x0800027b   Thumb Code     0  startup_stm32f407xx.o(.text)
    TIM7_IRQHandler                          0x0800027b   Thumb Code     0  startup_stm32f407xx.o(.text)
    TIM8_BRK_TIM12_IRQHandler                0x0800027b   Thumb Code     0  startup_stm32f407xx.o(.text)
    TIM8_CC_IRQHandler                       0x0800027b   Thumb Code     0  startup_stm32f407xx.o(.text)
    TIM8_TRG_COM_TIM14_IRQHandler            0x0800027b   Thumb Code     0  startup_stm32f407xx.o(.text)
    TIM8_UP_TIM13_IRQHandler                 0x0800027b   Thumb Code     0  startup_stm32f407xx.o(.text)
    UART4_IRQHandler                         0x0800027b   Thumb Code     0  startup_stm32f407xx.o(.text)
    UART5_IRQHandler                         0x0800027b   Thumb Code     0  startup_stm32f407xx.o(.text)
    USART2_IRQHandler                        0x0800027b   Thumb Code     0  startup_stm32f407xx.o(.text)
    USART3_IRQHandler                        0x0800027b   Thumb Code     0  startup_stm32f407xx.o(.text)
    WWDG_IRQHandler                          0x0800027b   Thumb Code     0  startup_stm32f407xx.o(.text)
    __aeabi_uldivmod                         0x08000285   Thumb Code    98  uldiv.o(.text)
    __aeabi_memcpy                           0x080002e7   Thumb Code    36  memcpya.o(.text)
    __aeabi_memcpy4                          0x080002e7   Thumb Code     0  memcpya.o(.text)
    __aeabi_memcpy8                          0x080002e7   Thumb Code     0  memcpya.o(.text)
    __aeabi_memset                           0x0800030b   Thumb Code    14  memseta.o(.text)
    __aeabi_memset4                          0x0800030b   Thumb Code     0  memseta.o(.text)
    __aeabi_memset8                          0x0800030b   Thumb Code     0  memseta.o(.text)
    __aeabi_memclr                           0x08000319   Thumb Code     4  memseta.o(.text)
    __aeabi_memclr4                          0x08000319   Thumb Code     0  memseta.o(.text)
    __aeabi_memclr8                          0x08000319   Thumb Code     0  memseta.o(.text)
    memset                                   0x0800031d   Thumb Code    18  memseta.o(.text)
    __aeabi_dadd                             0x0800032f   Thumb Code   322  dadd.o(.text)
    __aeabi_dsub                             0x08000471   Thumb Code     6  dadd.o(.text)
    __aeabi_drsub                            0x08000477   Thumb Code     6  dadd.o(.text)
    __aeabi_dmul                             0x0800047d   Thumb Code   228  dmul.o(.text)
    __aeabi_i2d                              0x08000561   Thumb Code    34  dflti.o(.text)
    __aeabi_f2d                              0x08000583   Thumb Code    38  f2d.o(.text)
    __aeabi_d2f                              0x080005a9   Thumb Code    56  d2f.o(.text)
    __aeabi_uidiv                            0x080005e1   Thumb Code     0  uidiv.o(.text)
    __aeabi_uidivmod                         0x080005e1   Thumb Code    44  uidiv.o(.text)
    __aeabi_llsl                             0x0800060d   Thumb Code    30  llshl.o(.text)
    _ll_shift_l                              0x0800060d   Thumb Code     0  llshl.o(.text)
    __aeabi_llsr                             0x0800062b   Thumb Code    32  llushr.o(.text)
    _ll_ushift_r                             0x0800062b   Thumb Code     0  llushr.o(.text)
    __aeabi_lasr                             0x0800064b   Thumb Code    36  llsshr.o(.text)
    _ll_sshift_r                             0x0800064b   Thumb Code     0  llsshr.o(.text)
    __I$use$fp                               0x0800066f   Thumb Code     0  iusefp.o(.text)
    _float_round                             0x0800066f   Thumb Code    18  fepilogue.o(.text)
    _float_epilogue                          0x08000681   Thumb Code    92  fepilogue.o(.text)
    _double_round                            0x080006dd   Thumb Code    30  depilogue.o(.text)
    _double_epilogue                         0x080006fb   Thumb Code   156  depilogue.o(.text)
    __aeabi_ddiv                             0x08000797   Thumb Code   222  ddiv.o(.text)
    __aeabi_d2ulz                            0x08000875   Thumb Code    48  dfixul.o(.text)
    __aeabi_cdrcmple                         0x080008a5   Thumb Code    48  cdrcmple.o(.text)
    __scatterload                            0x080008d5   Thumb Code    28  init.o(.text)
    __scatterload_rt2                        0x080008d5   Thumb Code     0  init.o(.text)
    __decompress                             0x080008f9   Thumb Code     0  __dczerorl2.o(.text)
    __decompress1                            0x080008f9   Thumb Code    86  __dczerorl2.o(.text)
    AddFloatdata                             0x08000951   Thumb Code   138  judge.o(i.AddFloatdata)
    AddPicture                               0x080009e1   Thumb Code   184  judge.o(i.AddPicture)
    AddPictureFunc                           0x08000a9d   Thumb Code   164  judge.o(i.AddPictureFunc)
    Append_CRC16_Check_Sum                   0x08000b45   Thumb Code    36  crc.o(i.Append_CRC16_Check_Sum)
    Append_CRC8_Check_Sum                    0x08000b6d   Thumb Code    28  crc.o(i.Append_CRC8_Check_Sum)
    BMI088_ACCEL_NS_H                        0x08000b89   Thumb Code    10  bmi088middleware.o(i.BMI088_ACCEL_NS_H)
    BMI088_ACCEL_NS_L                        0x08000b99   Thumb Code    10  bmi088middleware.o(i.BMI088_ACCEL_NS_L)
    BMI088_GPIO_init                         0x08000ba9   Thumb Code     2  bmi088middleware.o(i.BMI088_GPIO_init)
    BMI088_GYRO_NS_H                         0x08000bad   Thumb Code    10  bmi088middleware.o(i.BMI088_GYRO_NS_H)
    BMI088_GYRO_NS_L                         0x08000bbd   Thumb Code    10  bmi088middleware.o(i.BMI088_GYRO_NS_L)
    BMI088_com_init                          0x08000bcd   Thumb Code     2  bmi088middleware.o(i.BMI088_com_init)
    BMI088_delay_ms                          0x08000bcf   Thumb Code    24  bmi088middleware.o(i.BMI088_delay_ms)
    BMI088_delay_us                          0x08000be7   Thumb Code    46  bmi088middleware.o(i.BMI088_delay_us)
    BMI088_init                              0x08000c15   Thumb Code    24  bmi088driver.o(i.BMI088_init)
    BMI088_read                              0x08000c2d   Thumb Code   340  bmi088driver.o(i.BMI088_read)
    BMI088_read_write_byte                   0x08000dc1   Thumb Code    28  bmi088middleware.o(i.BMI088_read_write_byte)
    Boarder                                  0x08000df5   Thumb Code   356  judge.o(i.Boarder)
    BusFault_Handler                         0x08000f79   Thumb Code     2  stm32f4xx_it.o(i.BusFault_Handler)
    CAN1_RX0_IRQHandler                      0x08000f7d   Thumb Code     6  stm32f4xx_it.o(i.CAN1_RX0_IRQHandler)
    CAN1_TX_IRQHandler                       0x08000f89   Thumb Code     6  stm32f4xx_it.o(i.CAN1_TX_IRQHandler)
    CAN2_RX0_IRQHandler                      0x08000f95   Thumb Code     6  stm32f4xx_it.o(i.CAN2_RX0_IRQHandler)
    CAN2_TX_IRQHandler                       0x08000fa1   Thumb Code     6  stm32f4xx_it.o(i.CAN2_TX_IRQHandler)
    CANFilter_Enable                         0x08000fad   Thumb Code    86  bsp_can.o(i.CANFilter_Enable)
    CAN_Enable                               0x08001015   Thumb Code    26  bsp_can.o(i.CAN_Enable)
    CAN_Send_bytes                           0x08001031   Thumb Code    84  bsp_can.o(i.CAN_Send_bytes)
    CharacteFRIC_stateShow                   0x08001089   Thumb Code   342  judge.o(i.CharacteFRIC_stateShow)
    CharacterCHASSISMODstateShow             0x080011f5   Thumb Code   224  judge.o(i.CharacterCHASSISMODstateShow)
    CharacterCHASSIS_MODE                    0x080012e9   Thumb Code   270  judge.o(i.CharacterCHASSIS_MODE)
    CharacterFRIC_MODEShow                   0x08001405   Thumb Code   280  judge.o(i.CharacterFRIC_MODEShow)
    CharacterGIMBAL_MODE                     0x08001529   Thumb Code   272  judge.o(i.CharacterGIMBAL_MODE)
    CharacterGIMBALstateShow                 0x08001645   Thumb Code   352  judge.o(i.CharacterGIMBALstateShow)
    CharacterPitchShow                       0x080017b9   Thumb Code   282  judge.o(i.CharacterPitchShow)
    CheckID                                  0x080018e1   Thumb Code    10  judge.o(i.CheckID)
    Command                                  0x080018f5   Thumb Code   390  stmgood.o(i.Command)
    CompStr                                  0x08001afd   Thumb Code    48  stmgood.o(i.CompStr)
    CopyStr                                  0x08001b2d   Thumb Code    22  stmgood.o(i.CopyStr)
    Crosshair                                0x08001b45   Thumb Code   592  judge.o(i.Crosshair)
    Crosshair1                               0x08001da9   Thumb Code   270  judge.o(i.Crosshair1)
    DMA2_Stream1_IRQHandler                  0x08001ec9   Thumb Code     6  stm32f4xx_it.o(i.DMA2_Stream1_IRQHandler)
    DMA2_Stream2_IRQHandler                  0x08001ed5   Thumb Code     6  stm32f4xx_it.o(i.DMA2_Stream2_IRQHandler)
    DMA2_Stream3_IRQHandler                  0x08001ee1   Thumb Code     6  stm32f4xx_it.o(i.DMA2_Stream3_IRQHandler)
    DealStr                                  0x08001f91   Thumb Code   128  stmgood.o(i.DealStr)
    Dealdata                                 0x08002019   Thumb Code   134  stmgood.o(i.Dealdata)
    DebugMon_Handler                         0x080020a9   Thumb Code     2  stm32f4xx_it.o(i.DebugMon_Handler)
    DrawCapVolRectangle                      0x080020ad   Thumb Code  1076  judge.o(i.DrawCapVolRectangle)
    EXTI4_IRQHandler                         0x080024e9   Thumb Code     6  stm32f4xx_it.o(i.EXTI4_IRQHandler)
    EXTI9_5_IRQHandler                       0x080024ef   Thumb Code     6  stm32f4xx_it.o(i.EXTI9_5_IRQHandler)
    Error_Handler                            0x080024f5   Thumb Code     2  main.o(i.Error_Handler)
    FirstSpace                               0x080024f7   Thumb Code    24  stmgood.o(i.FirstSpace)
    FloatDataShow                            0x08002511   Thumb Code   586  judge.o(i.FloatDataShow)
    Get_CRC16_Check_Sum                      0x0800276d   Thumb Code    38  crc.o(i.Get_CRC16_Check_Sum)
    Get_CRC8_Check_Sum                       0x08002799   Thumb Code    24  crc.o(i.Get_CRC8_Check_Sum)
    HAL_CAN_ActivateNotification             0x080027b5   Thumb Code    36  stm32f4xx_hal_can.o(i.HAL_CAN_ActivateNotification)
    HAL_CAN_AddTxMessage                     0x080027d9   Thumb Code   220  stm32f4xx_hal_can.o(i.HAL_CAN_AddTxMessage)
    HAL_CAN_ConfigFilter                     0x080028b5   Thumb Code   262  stm32f4xx_hal_can.o(i.HAL_CAN_ConfigFilter)
    HAL_CAN_ErrorCallback                    0x080029c1   Thumb Code     2  stm32f4xx_hal_can.o(i.HAL_CAN_ErrorCallback)
    HAL_CAN_GetRxMessage                     0x080029c3   Thumb Code   232  stm32f4xx_hal_can.o(i.HAL_CAN_GetRxMessage)
    HAL_CAN_IRQHandler                       0x08002aab   Thumb Code   508  stm32f4xx_hal_can.o(i.HAL_CAN_IRQHandler)
    HAL_CAN_Init                             0x08002ca7   Thumb Code   282  stm32f4xx_hal_can.o(i.HAL_CAN_Init)
    HAL_CAN_MspInit                          0x08002dc1   Thumb Code   258  can.o(i.HAL_CAN_MspInit)
    HAL_CAN_RxFifo0FullCallback              0x08002edd   Thumb Code     2  stm32f4xx_hal_can.o(i.HAL_CAN_RxFifo0FullCallback)
    HAL_CAN_RxFifo0MsgPendingCallback        0x08002ee1   Thumb Code   190  bsp_can.o(i.HAL_CAN_RxFifo0MsgPendingCallback)
    HAL_CAN_RxFifo1FullCallback              0x08002fb5   Thumb Code     2  stm32f4xx_hal_can.o(i.HAL_CAN_RxFifo1FullCallback)
    HAL_CAN_RxFifo1MsgPendingCallback        0x08002fb7   Thumb Code     2  stm32f4xx_hal_can.o(i.HAL_CAN_RxFifo1MsgPendingCallback)
    HAL_CAN_SleepCallback                    0x08002fb9   Thumb Code     2  stm32f4xx_hal_can.o(i.HAL_CAN_SleepCallback)
    HAL_CAN_Start                            0x08002fbd   Thumb Code    88  stm32f4xx_hal_can.o(i.HAL_CAN_Start)
    HAL_CAN_TxMailbox0AbortCallback          0x08003015   Thumb Code     2  stm32f4xx_hal_can.o(i.HAL_CAN_TxMailbox0AbortCallback)
    HAL_CAN_TxMailbox0CompleteCallback       0x08003017   Thumb Code     2  stm32f4xx_hal_can.o(i.HAL_CAN_TxMailbox0CompleteCallback)
    HAL_CAN_TxMailbox1AbortCallback          0x08003019   Thumb Code     2  stm32f4xx_hal_can.o(i.HAL_CAN_TxMailbox1AbortCallback)
    HAL_CAN_TxMailbox1CompleteCallback       0x0800301b   Thumb Code     2  stm32f4xx_hal_can.o(i.HAL_CAN_TxMailbox1CompleteCallback)
    HAL_CAN_TxMailbox2AbortCallback          0x0800301d   Thumb Code     2  stm32f4xx_hal_can.o(i.HAL_CAN_TxMailbox2AbortCallback)
    HAL_CAN_TxMailbox2CompleteCallback       0x0800301f   Thumb Code     2  stm32f4xx_hal_can.o(i.HAL_CAN_TxMailbox2CompleteCallback)
    HAL_CAN_WakeUpFromRxMsgCallback          0x08003021   Thumb Code     2  stm32f4xx_hal_can.o(i.HAL_CAN_WakeUpFromRxMsgCallback)
    HAL_DMA_Abort_IT                         0x08003023   Thumb Code    36  stm32f4xx_hal_dma.o(i.HAL_DMA_Abort_IT)
    HAL_DMA_IRQHandler                       0x08003049   Thumb Code   412  stm32f4xx_hal_dma.o(i.HAL_DMA_IRQHandler)
    HAL_DMA_Init                             0x080031e9   Thumb Code   206  stm32f4xx_hal_dma.o(i.HAL_DMA_Init)
    HAL_DMA_Start_IT                         0x080032bd   Thumb Code   110  stm32f4xx_hal_dma.o(i.HAL_DMA_Start_IT)
    HAL_GPIO_EXTI_Callback                   0x0800332b   Thumb Code     2  stm32f4xx_hal_gpio.o(i.HAL_GPIO_EXTI_Callback)
    HAL_GPIO_EXTI_IRQHandler                 0x0800332d   Thumb Code    18  stm32f4xx_hal_gpio.o(i.HAL_GPIO_EXTI_IRQHandler)
    HAL_GPIO_Init                            0x08003345   Thumb Code   394  stm32f4xx_hal_gpio.o(i.HAL_GPIO_Init)
    HAL_GPIO_WritePin                        0x080034fd   Thumb Code    10  stm32f4xx_hal_gpio.o(i.HAL_GPIO_WritePin)
    HAL_GetTick                              0x08003509   Thumb Code     6  stm32f4xx_hal.o(i.HAL_GetTick)
    HAL_IncTick                              0x08003515   Thumb Code    12  stm32f4xx_hal.o(i.HAL_IncTick)
    HAL_Init                                 0x08003525   Thumb Code    48  stm32f4xx_hal.o(i.HAL_Init)
    HAL_InitTick                             0x08003559   Thumb Code    54  stm32f4xx_hal.o(i.HAL_InitTick)
    HAL_MspInit                              0x08003599   Thumb Code    52  stm32f4xx_hal_msp.o(i.HAL_MspInit)
    HAL_NVIC_EnableIRQ                       0x080035d1   Thumb Code    26  stm32f4xx_hal_cortex.o(i.HAL_NVIC_EnableIRQ)
    HAL_NVIC_SetPriority                     0x080035ed   Thumb Code    60  stm32f4xx_hal_cortex.o(i.HAL_NVIC_SetPriority)
    HAL_NVIC_SetPriorityGrouping             0x0800362d   Thumb Code    26  stm32f4xx_hal_cortex.o(i.HAL_NVIC_SetPriorityGrouping)
    HAL_RCC_ClockConfig                      0x08003651   Thumb Code   288  stm32f4xx_hal_rcc.o(i.HAL_RCC_ClockConfig)
    HAL_RCC_GetPCLK1Freq                     0x08003785   Thumb Code    20  stm32f4xx_hal_rcc.o(i.HAL_RCC_GetPCLK1Freq)
    HAL_RCC_GetPCLK2Freq                     0x080037a5   Thumb Code    20  stm32f4xx_hal_rcc.o(i.HAL_RCC_GetPCLK2Freq)
    HAL_RCC_GetSysClockFreq                  0x080037c5   Thumb Code    88  stm32f4xx_hal_rcc.o(i.HAL_RCC_GetSysClockFreq)
    HAL_RCC_OscConfig                        0x08003829   Thumb Code   840  stm32f4xx_hal_rcc.o(i.HAL_RCC_OscConfig)
    HAL_SPI_Init                             0x08003b85   Thumb Code   128  stm32f4xx_hal_spi.o(i.HAL_SPI_Init)
    HAL_SPI_MspInit                          0x08003c05   Thumb Code   232  spi.o(i.HAL_SPI_MspInit)
    HAL_SPI_TransmitReceive                  0x08003d05   Thumb Code   482  stm32f4xx_hal_spi.o(i.HAL_SPI_TransmitReceive)
    HAL_SYSTICK_Config                       0x08003ee7   Thumb Code    40  stm32f4xx_hal_cortex.o(i.HAL_SYSTICK_Config)
    HAL_TIMEx_BreakCallback                  0x08003f0f   Thumb Code     2  stm32f4xx_hal_tim_ex.o(i.HAL_TIMEx_BreakCallback)
    HAL_TIMEx_CommutCallback                 0x08003f11   Thumb Code     2  stm32f4xx_hal_tim_ex.o(i.HAL_TIMEx_CommutCallback)
    HAL_TIM_Base_Init                        0x08003f13   Thumb Code    54  stm32f4xx_hal_tim.o(i.HAL_TIM_Base_Init)
    HAL_TIM_Base_MspInit                     0x08003f49   Thumb Code    50  tim.o(i.HAL_TIM_Base_MspInit)
    HAL_TIM_IC_CaptureCallback               0x08003f85   Thumb Code     2  stm32f4xx_hal_tim.o(i.HAL_TIM_IC_CaptureCallback)
    HAL_TIM_IRQHandler                       0x08003f87   Thumb Code   358  stm32f4xx_hal_tim.o(i.HAL_TIM_IRQHandler)
    HAL_TIM_MspPostInit                      0x080040ed   Thumb Code    70  tim.o(i.HAL_TIM_MspPostInit)
    HAL_TIM_OC_DelayElapsedCallback          0x08004141   Thumb Code     2  stm32f4xx_hal_tim.o(i.HAL_TIM_OC_DelayElapsedCallback)
    HAL_TIM_PWM_ConfigChannel                0x08004143   Thumb Code   208  stm32f4xx_hal_tim.o(i.HAL_TIM_PWM_ConfigChannel)
    HAL_TIM_PWM_Init                         0x08004213   Thumb Code    54  stm32f4xx_hal_tim.o(i.HAL_TIM_PWM_Init)
    HAL_TIM_PWM_MspInit                      0x08004249   Thumb Code     2  stm32f4xx_hal_tim.o(i.HAL_TIM_PWM_MspInit)
    HAL_TIM_PWM_PulseFinishedCallback        0x0800424b   Thumb Code     2  stm32f4xx_hal_tim.o(i.HAL_TIM_PWM_PulseFinishedCallback)
    HAL_TIM_PeriodElapsedCallback            0x0800424d   Thumb Code     2  stm32f4xx_hal_tim.o(i.HAL_TIM_PeriodElapsedCallback)
    HAL_TIM_TriggerCallback                  0x0800424f   Thumb Code     2  stm32f4xx_hal_tim.o(i.HAL_TIM_TriggerCallback)
    HAL_UART_ErrorCallback                   0x08004251   Thumb Code    18  bsp_usart.o(i.HAL_UART_ErrorCallback)
    HAL_UART_IRQHandler                      0x08004265   Thumb Code   270  stm32f4xx_hal_uart.o(i.HAL_UART_IRQHandler)
    HAL_UART_Init                            0x08004379   Thumb Code    98  stm32f4xx_hal_uart.o(i.HAL_UART_Init)
    HAL_UART_MspInit                         0x080043dd   Thumb Code   258  usart.o(i.HAL_UART_MspInit)
    HAL_UART_Receive_DMA                     0x08004501   Thumb Code   138  stm32f4xx_hal_uart.o(i.HAL_UART_Receive_DMA)
    HAL_UART_Receive_IT                      0x08004599   Thumb Code    82  stm32f4xx_hal_uart.o(i.HAL_UART_Receive_IT)
    HAL_UART_RxCpltCallback                  0x080045ed   Thumb Code    82  bsp_usart.o(i.HAL_UART_RxCpltCallback)
    HAL_UART_RxHalfCpltCallback              0x08004659   Thumb Code     2  stm32f4xx_hal_uart.o(i.HAL_UART_RxHalfCpltCallback)
    HAL_UART_Transmit_IT                     0x0800465b   Thumb Code    62  stm32f4xx_hal_uart.o(i.HAL_UART_Transmit_IT)
    HAL_UART_TxCpltCallback                  0x08004699   Thumb Code     2  stm32f4xx_hal_uart.o(i.HAL_UART_TxCpltCallback)
    HardFault_Handler                        0x0800469b   Thumb Code     2  stm32f4xx_it.o(i.HardFault_Handler)
    JudgeData                                0x0800469d   Thumb Code   544  judge.o(i.JudgeData)
    MX_CAN1_Init                             0x080048c9   Thumb Code    62  can.o(i.MX_CAN1_Init)
    MX_CAN2_Init                             0x08004911   Thumb Code    66  can.o(i.MX_CAN2_Init)
    MX_DMA_Init                              0x0800495d   Thumb Code    72  dma.o(i.MX_DMA_Init)
    MX_FREERTOS_Init                         0x080049a9   Thumb Code    96  freertos.o(i.MX_FREERTOS_Init)
    MX_GPIO_Init                             0x08004a11   Thumb Code   338  gpio.o(i.MX_GPIO_Init)
    MX_SPI1_Init                             0x08004b85   Thumb Code    64  spi.o(i.MX_SPI1_Init)
    MX_TIM10_Init                            0x08004bcd   Thumb Code    92  tim.o(i.MX_TIM10_Init)
    MX_USART1_UART_Init                      0x08004c31   Thumb Code    48  usart.o(i.MX_USART1_UART_Init)
    MX_USART6_UART_Init                      0x08004c69   Thumb Code    48  usart.o(i.MX_USART6_UART_Init)
    MY_CAN_Init                              0x08004ca1   Thumb Code    18  bsp_can.o(i.MY_CAN_Init)
    MY_USART_Init                            0x08004cbd   Thumb Code    32  bsp_usart.o(i.MY_USART_Init)
    MemManage_Handler                        0x08004ced   Thumb Code     2  stm32f4xx_it.o(i.MemManage_Handler)
    NMI_Handler                              0x08004cef   Thumb Code     2  stm32f4xx_it.o(i.NMI_Handler)
    SplitStr                                 0x08004ddd   Thumb Code    80  stmgood.o(i.SplitStr)
    StartDefaultTask                         0x08004e2d   Thumb Code    10  freertos.o(i.StartDefaultTask)
    StartTask02                              0x08004e37   Thumb Code    12  mytask02.o(i.StartTask02)
    StartTask03                              0x08004e45   Thumb Code    34  mytask03.o(i.StartTask03)
    StartTask04                              0x08004e71   Thumb Code    16  mytask04.o(i.StartTask04)
    Start_RM_Task                            0x08004e81   Thumb Code   410  rm_task.o(i.Start_RM_Task)
    Start_UI_Task                            0x08005041   Thumb Code   410  rm_task.o(i.Start_UI_Task)
    StrToFloat                               0x080051e5   Thumb Code   282  stmgood.o(i.StrToFloat)
    Strlen                                   0x08005319   Thumb Code    16  stmgood.o(i.Strlen)
    SubStr                                   0x08005329   Thumb Code    34  stmgood.o(i.SubStr)
    SysTick_Handler                          0x08005351   Thumb Code    24  stm32f4xx_it.o(i.SysTick_Handler)
    SystemClock_Config                       0x08005369   Thumb Code   124  main.o(i.SystemClock_Config)
    SystemInit                               0x080053ed   Thumb Code    66  system_stm32f4xx.o(i.SystemInit)
    TIM1_UP_TIM10_IRQHandler                 0x08005441   Thumb Code     6  stm32f4xx_it.o(i.TIM1_UP_TIM10_IRQHandler)
    TIM_Base_SetConfig                       0x0800544d   Thumb Code   156  stm32f4xx_hal_tim.o(i.TIM_Base_SetConfig)
    TIM_OC2_SetConfig                        0x08005575   Thumb Code    98  stm32f4xx_hal_tim.o(i.TIM_OC2_SetConfig)
    Two_byte_send_id                         0x08005699   Thumb Code   110  judge.o(i.Two_byte_send_id)
    USART1_IRQHandler                        0x080059fd   Thumb Code     6  stm32f4xx_it.o(i.USART1_IRQHandler)
    USART6_IRQHandler                        0x08005a09   Thumb Code     6  stm32f4xx_it.o(i.USART6_IRQHandler)
    USART_Enable                             0x08005a15   Thumb Code    22  bsp_usart.o(i.USART_Enable)
    UsageFault_Handler                       0x08005a2b   Thumb Code     2  stm32f4xx_it.o(i.UsageFault_Handler)
    Verify_CRC16_Check_Sum                   0x08005a2d   Thumb Code    54  crc.o(i.Verify_CRC16_Check_Sum)
    Verify_CRC8_Check_Sum                    0x08005a69   Thumb Code    38  crc.o(i.Verify_CRC8_Check_Sum)
    __0printf                                0x08005a91   Thumb Code    22  printfa.o(i.__0printf)
    __1printf                                0x08005a91   Thumb Code     0  printfa.o(i.__0printf)
    __2printf                                0x08005a91   Thumb Code     0  printfa.o(i.__0printf)
    __c89printf                              0x08005a91   Thumb Code     0  printfa.o(i.__0printf)
    printf                                   0x08005a91   Thumb Code     0  printfa.o(i.__0printf)
    __scatterload_copy                       0x08005ad1   Thumb Code    14  handlers.o(i.__scatterload_copy)
    __scatterload_null                       0x08005adf   Thumb Code     2  handlers.o(i.__scatterload_null)
    __scatterload_zeroinit                   0x08005ae1   Thumb Code    14  handlers.o(i.__scatterload_zeroinit)
    bmi088_accel_init                        0x0800637d   Thumb Code   266  bmi088driver.o(i.bmi088_accel_init)
    bmi088_gyro_init                         0x0800648d   Thumb Code   214  bmi088driver.o(i.bmi088_gyro_init)
    cmd                                      0x08006569   Thumb Code   156  stmgood.o(i.cmd)
    fputc                                    0x0800663d   Thumb Code    14  bsp_usart.o(i.fputc)
    main                                     0x08006651   Thumb Code    66  main.o(i.main)
    multi1                                   0x080066a1   Thumb Code    66  stmgood.o(i.multi1)
    multi2                                   0x0800670d   Thumb Code    58  stmgood.o(i.multi2)
    osDelay                                  0x08006765   Thumb Code    14  cmsis_os.o(i.osDelay)
    osKernelStart                            0x08006773   Thumb Code    10  cmsis_os.o(i.osKernelStart)
    osThreadCreate                           0x0800677d   Thumb Code    84  cmsis_os.o(i.osThreadCreate)
    pvPortMalloc                             0x08006f6d   Thumb Code   210  heap_4.o(i.pvPortMalloc)
    pxPortInitialiseStack                    0x08007045   Thumb Code    40  port.o(i.pxPortInitialiseStack)
    uxListRemove                             0x08007071   Thumb Code    38  list.o(i.uxListRemove)
    vApplicationGetIdleTaskMemory            0x08007099   Thumb Code    16  freertos.o(i.vApplicationGetIdleTaskMemory)
    vApplicationGetTimerTaskMemory           0x080070ad   Thumb Code    16  freertos.o(i.vApplicationGetTimerTaskMemory)
    vApplicationStackOverflowHook            0x080070c1   Thumb Code     2  freertos.o(i.vApplicationStackOverflowHook)
    vListInitialise                          0x080070c3   Thumb Code    22  list.o(i.vListInitialise)
    vListInitialiseItem                      0x080070d9   Thumb Code     6  list.o(i.vListInitialiseItem)
    vListInsert                              0x080070df   Thumb Code    48  list.o(i.vListInsert)
    vListInsertEnd                           0x0800710f   Thumb Code    24  list.o(i.vListInsertEnd)
    vPortEnterCritical                       0x08007129   Thumb Code    54  port.o(i.vPortEnterCritical)
    vPortExitCritical                        0x08007169   Thumb Code    34  port.o(i.vPortExitCritical)
    vPortFree                                0x08007191   Thumb Code    88  heap_4.o(i.vPortFree)
    vPortSetupTimerInterrupt                 0x080071ed   Thumb Code    32  port.o(i.vPortSetupTimerInterrupt)
    vPortValidateInterruptPriority           0x08007211   Thumb Code    74  port.o(i.vPortValidateInterruptPriority)
    vQueueAddToRegistry                      0x08007265   Thumb Code    34  queue.o(i.vQueueAddToRegistry)
    vQueueWaitForMessageRestricted           0x0800728d   Thumb Code    68  queue.o(i.vQueueWaitForMessageRestricted)
    vTaskDelay                               0x080072d1   Thumb Code    66  tasks.o(i.vTaskDelay)
    vTaskInternalSetTimeOutState             0x0800731d   Thumb Code    12  tasks.o(i.vTaskInternalSetTimeOutState)
    vTaskMissedYield                         0x0800732d   Thumb Code     8  tasks.o(i.vTaskMissedYield)
    vTaskPlaceOnEventList                    0x08007339   Thumb Code    44  tasks.o(i.vTaskPlaceOnEventList)
    vTaskPlaceOnEventListRestricted          0x08007369   Thumb Code    52  tasks.o(i.vTaskPlaceOnEventListRestricted)
    vTaskStartScheduler                      0x080073a1   Thumb Code   118  tasks.o(i.vTaskStartScheduler)
    vTaskSuspendAll                          0x08007429   Thumb Code    10  tasks.o(i.vTaskSuspendAll)
    vTaskSwitchContext                       0x08007439   Thumb Code   106  tasks.o(i.vTaskSwitchContext)
    xPortStartScheduler                      0x080074ad   Thumb Code   222  port.o(i.xPortStartScheduler)
    xPortSysTickHandler                      0x080075a1   Thumb Code    38  port.o(i.xPortSysTickHandler)
    xQueueGenericCreateStatic                0x080075cd   Thumb Code   102  queue.o(i.xQueueGenericCreateStatic)
    xQueueGenericReset                       0x08007635   Thumb Code   132  queue.o(i.xQueueGenericReset)
    xQueueGenericSend                        0x080076bd   Thumb Code   346  queue.o(i.xQueueGenericSend)
    xQueueGenericSendFromISR                 0x0800781d   Thumb Code   188  queue.o(i.xQueueGenericSendFromISR)
    xQueueReceive                            0x080078d9   Thumb Code   308  queue.o(i.xQueueReceive)
    xTaskCheckForTimeOut                     0x08007a11   Thumb Code   112  tasks.o(i.xTaskCheckForTimeOut)
    xTaskCreate                              0x08007a85   Thumb Code    90  tasks.o(i.xTaskCreate)
    xTaskCreateStatic                        0x08007adf   Thumb Code    86  tasks.o(i.xTaskCreateStatic)
    xTaskGetSchedulerState                   0x08007b35   Thumb Code    22  tasks.o(i.xTaskGetSchedulerState)
    xTaskGetTickCount                        0x08007b51   Thumb Code     6  tasks.o(i.xTaskGetTickCount)
    xTaskIncrementTick                       0x08007b5d   Thumb Code   192  tasks.o(i.xTaskIncrementTick)
    xTaskPriorityDisinherit                  0x08007c25   Thumb Code   144  tasks.o(i.xTaskPriorityDisinherit)
    xTaskRemoveFromEventList                 0x08007cbd   Thumb Code   108  tasks.o(i.xTaskRemoveFromEventList)
    xTaskResumeAll                           0x08007d31   Thumb Code   182  tasks.o(i.xTaskResumeAll)
    xTimerCreateTimerTask                    0x08007df5   Thumb Code    78  timers.o(i.xTimerCreateTimerTask)
    xTimerGenericCommand                     0x08007e55   Thumb Code    92  timers.o(i.xTimerGenericCommand)
    AHBPrescTable                            0x08007f2c   Data          16  system_stm32f4xx.o(.constdata)
    APBPrescTable                            0x08007f3c   Data           8  system_stm32f4xx.o(.constdata)
    CRC8_TAB                                 0x08007f44   Data         256  crc.o(.constdata)
    wCRC_Table                               0x08008044   Data         512  crc.o(.constdata)
    Region$$Table$$Base                      0x08008344   Number         0  anon$$obj.o(Region$$Table)
    Region$$Table$$Limit                     0x08008364   Number         0  anon$$obj.o(Region$$Table)
    defaultTaskHandle                        0x20000000   Data           4  freertos.o(.data)
    myTask02Handle                           0x20000004   Data           4  freertos.o(.data)
    myTask03Handle                           0x20000008   Data           4  freertos.o(.data)
    myTask04Handle                           0x2000000c   Data           4  freertos.o(.data)
    uwTickFreq                               0x20000014   Data           1  stm32f4xx_hal.o(.data)
    uwTickPrio                               0x20000018   Data           4  stm32f4xx_hal.o(.data)
    uwTick                                   0x2000001c   Data           4  stm32f4xx_hal.o(.data)
    SystemCoreClock                          0x20000020   Data           4  system_stm32f4xx.o(.data)
    uart6_rx_buffer                          0x20000024   Data           1  bsp_usart.o(.data)
    Count                                    0x20000028   Data           1  stmgood.o(.data)
    P1                                       0x20000030   Data           8  stmgood.o(.data)
    I1                                       0x20000038   Data           8  stmgood.o(.data)
    D1                                       0x20000040   Data           8  stmgood.o(.data)
    S1                                       0x20000048   Data           8  stmgood.o(.data)
    P2                                       0x20000050   Data           8  stmgood.o(.data)
    I2                                       0x20000058   Data           8  stmgood.o(.data)
    D2                                       0x20000060   Data           8  stmgood.o(.data)
    S2                                       0x20000068   Data           8  stmgood.o(.data)
    CRC_INIT                                 0x20000070   Data           2  crc.o(.data)
    PowerReciveNewDataSignal                 0x20000074   Data           1  judge.o(.data)
    Judge_GameResult                         0x20000085   Data           1  judge.o(.data)
    Judge_BuffMusk                           0x20000086   Data           1  judge.o(.data)
    Judge_RobotHurt                          0x20000087   Data           1  judge.o(.data)
    datatype                                 0x20000092   Data           2  judge.o(.data)
    w2data                                   0x20000094   Data           2  judge.o(.data)
    Judge_AerialRobotEnergy                  0x20000096   Data           2  judge.o(.data)
    Judge_RefereeWarning                     0x20000098   Data           2  judge.o(.data)
    Judge_BulletRemaining                    0x2000009a   Data           2  judge.o(.data)
    Judge_GameState                          0x2000009c   Data           3  judge.o(.data)
    Judge_SupplyProjectileBooking            0x2000009f   Data           3  judge.o(.data)
    JudgeReceivedNewData                     0x200000a4   Data           4  judge.o(.data)
    fps                                      0x200000b4   Data           4  judge.o(.data)
    Robot_ID                                 0x200000b8   Data           4  judge.o(.data)
    w4data                                   0x200000bc   Data           4  judge.o(.data)
    Judge_EventData                          0x200000c0   Data           4  judge.o(.data)
    Judge_SupplyProjectileAction             0x200000c4   Data           4  judge.o(.data)
    Judge_StudentInfoHeader                  0x200000c8   Data           6  judge.o(.data)
    Judge_ShootData                          0x200000ce   Data           7  judge.o(.data)
    cha                                      0x200000d8   Data          72  judge.o(.data)
    JudgeSendFresh                           0x20000120   Data           4  judge.o(.data)
    data2bytes                               0x20000126   Data           2  rm_task.o(.data)
    data4bytes                               0x20000128   Data           4  rm_task.o(.data)
    aaaaaaa                                  0x2000012c   Data           4  rm_task.o(.data)
    candata                                  0x20000130   Data           8  rm_task.o(.data)
    pxCurrentTCB                             0x20000138   Data           4  tasks.o(.data)
    temp                                     0x200001ac   Data           4  mytask03.o(.data)
    chas                                     0x200001b0   Data           4  mytask03.o(.data)
    BMI088_ACCEL_SEN                         0x200001b4   Data           4  bmi088driver.o(.data)
    BMI088_GYRO_SEN                          0x200001b8   Data           4  bmi088driver.o(.data)
    __stdout                                 0x200001e0   Data           4  stdout.o(.data)
    hcan1                                    0x2000069c   Data          40  can.o(.bss)
    hcan2                                    0x200006c4   Data          40  can.o(.bss)
    hspi1                                    0x200006ec   Data          88  spi.o(.bss)
    hdma_spi1_rx                             0x20000744   Data          96  spi.o(.bss)
    hdma_spi1_tx                             0x200007a4   Data          96  spi.o(.bss)
    htim10                                   0x20000804   Data          64  tim.o(.bss)
    huart1                                   0x20000844   Data          64  usart.o(.bss)
    huart6                                   0x20000884   Data          64  usart.o(.bss)
    hdma_usart6_rx                           0x200008c4   Data          96  usart.o(.bss)
    uiRx                                     0x20000924   Data          36  bsp_can.o(.bss)
    uart1_rx_buffer                          0x20000948   Data          30  bsp_usart.o(.bss)
    Cmd1                                     0x20000968   Data          20  stmgood.o(.bss)
    Cmd2                                     0x2000097c   Data          80  stmgood.o(.bss)
    Data                                     0x200009cc   Data         100  stmgood.o(.bss)
    Str1                                     0x20000a30   Data         100  stmgood.o(.bss)
    xx                                       0x20000a98   Data         800  stmgood.o(.bss)
    JudgeReceivedNewDataSignal               0x20000db8   Data          16  judge.o(.bss)
    HeaderData                               0x20000dc8   Data          20  judge.o(.bss)
    ReceiveData                              0x20000ddc   Data         255  judge.o(.bss)
    UpData                                   0x20000edb   Data         128  judge.o(.bss)
    UpData0                                  0x20000f5b   Data         128  judge.o(.bss)
    UpData1                                  0x20000fdb   Data         112  judge.o(.bss)
    UpData2                                  0x2000104b   Data         112  judge.o(.bss)
    UpData3                                  0x200010bb   Data         112  judge.o(.bss)
    UpData4                                  0x2000112b   Data         112  judge.o(.bss)
    UpData5                                  0x2000119b   Data         112  judge.o(.bss)
    UpData6                                  0x2000120b   Data         112  judge.o(.bss)
    UpData7                                  0x2000127b   Data         112  judge.o(.bss)
    UpData8                                  0x200012eb   Data         112  judge.o(.bss)
    UpData9                                  0x2000135b   Data         112  judge.o(.bss)
    UpData10                                 0x200013cb   Data         112  judge.o(.bss)
    UpData15                                 0x2000143b   Data         128  judge.o(.bss)
    Judge_GameRobotSurvivors                 0x200014bb   Data          28  judge.o(.bss)
    Judge_GameRobotState                     0x200014d7   Data          27  judge.o(.bss)
    Judge_PowerHeatData                      0x200014f2   Data          16  judge.o(.bss)
    Judge_GameRobotPos                       0x20001502   Data          16  judge.o(.bss)
    Judge_RobotInterfaceData                 0x20001512   Data         112  judge.o(.bss)
    Judge_ClientDrawSeven                    0x20001582   Data         105  judge.o(.bss)
    Judge_ClientCharacter                    0x200015eb   Data          45  judge.o(.bss)
    Judge_ClientDrawFive                     0x20001618   Data          75  judge.o(.bss)
    UpData16                                 0x20001663   Data         128  judge.o(.bss)
    Judge_ClientDrawFive_STATE               0x200016e3   Data          75  judge.o(.bss)
    xQueueRegistry                           0x20001730   Data          64  queue.o(.bss)
    gyro                                     0x20003890   Data          12  mytask03.o(.bss)
    accel                                    0x2000389c   Data          12  mytask03.o(.bss)
    __initial_sp                             0x20003ca8   Data           0  startup_stm32f407xx.o(STACK)



==============================================================================

Memory Map of the image

  Image Entry point : 0x08000189

  Load Region LR_IROM1 (Base: 0x08000000, Size: 0x00008548, Max: 0x00100000, ABSOLUTE, COMPRESSED[0x000083ec])

    Execution Region ER_IROM1 (Exec base: 0x08000000, Load base: 0x08000000, Size: 0x00008364, Max: 0x00100000, ABSOLUTE)

    Exec Addr    Load Addr    Size         Type   Attr      Idx    E Section Name        Object

    0x08000000   0x08000000   0x00000188   Data   RO            3    RESET               startup_stm32f407xx.o
    0x08000188   0x08000188   0x00000000   Code   RO         6461  * .ARM.Collect$$$$00000000  mc_w.l(entry.o)
    0x08000188   0x08000188   0x00000004   Code   RO         6747    .ARM.Collect$$$$00000001  mc_w.l(entry2.o)
    0x0800018c   0x0800018c   0x00000004   Code   RO         6750    .ARM.Collect$$$$00000004  mc_w.l(entry5.o)
    0x08000190   0x08000190   0x00000000   Code   RO         6752    .ARM.Collect$$$$00000008  mc_w.l(entry7b.o)
    0x08000190   0x08000190   0x00000000   Code   RO         6754    .ARM.Collect$$$$0000000A  mc_w.l(entry8b.o)
    0x08000190   0x08000190   0x00000008   Code   RO         6755    .ARM.Collect$$$$0000000B  mc_w.l(entry9a.o)
    0x08000198   0x08000198   0x00000004   Code   RO         6762    .ARM.Collect$$$$0000000E  mc_w.l(entry12b.o)
    0x0800019c   0x0800019c   0x00000000   Code   RO         6757    .ARM.Collect$$$$0000000F  mc_w.l(entry10a.o)
    0x0800019c   0x0800019c   0x00000000   Code   RO         6759    .ARM.Collect$$$$00000011  mc_w.l(entry11a.o)
    0x0800019c   0x0800019c   0x00000004   Code   RO         6748    .ARM.Collect$$$$00002712  mc_w.l(entry2.o)
    0x080001a0   0x080001a0   0x000000be   Code   RO         6081    .emb_text           port.o
    0x0800025e   0x0800025e   0x00000002   PAD
    0x08000260   0x08000260   0x00000024   Code   RO            4    .text               startup_stm32f407xx.o
    0x08000284   0x08000284   0x00000062   Code   RO         6464    .text               mc_w.l(uldiv.o)
    0x080002e6   0x080002e6   0x00000024   Code   RO         6466    .text               mc_w.l(memcpya.o)
    0x0800030a   0x0800030a   0x00000024   Code   RO         6470    .text               mc_w.l(memseta.o)
    0x0800032e   0x0800032e   0x0000014e   Code   RO         6735    .text               mf_w.l(dadd.o)
    0x0800047c   0x0800047c   0x000000e4   Code   RO         6737    .text               mf_w.l(dmul.o)
    0x08000560   0x08000560   0x00000022   Code   RO         6741    .text               mf_w.l(dflti.o)
    0x08000582   0x08000582   0x00000026   Code   RO         6743    .text               mf_w.l(f2d.o)
    0x080005a8   0x080005a8   0x00000038   Code   RO         6745    .text               mf_w.l(d2f.o)
    0x080005e0   0x080005e0   0x0000002c   Code   RO         6764    .text               mc_w.l(uidiv.o)
    0x0800060c   0x0800060c   0x0000001e   Code   RO         6766    .text               mc_w.l(llshl.o)
    0x0800062a   0x0800062a   0x00000020   Code   RO         6768    .text               mc_w.l(llushr.o)
    0x0800064a   0x0800064a   0x00000024   Code   RO         6770    .text               mc_w.l(llsshr.o)
    0x0800066e   0x0800066e   0x00000000   Code   RO         6772    .text               mc_w.l(iusefp.o)
    0x0800066e   0x0800066e   0x0000006e   Code   RO         6773    .text               mf_w.l(fepilogue.o)
    0x080006dc   0x080006dc   0x000000ba   Code   RO         6775    .text               mf_w.l(depilogue.o)
    0x08000796   0x08000796   0x000000de   Code   RO         6777    .text               mf_w.l(ddiv.o)
    0x08000874   0x08000874   0x00000030   Code   RO         6779    .text               mf_w.l(dfixul.o)
    0x080008a4   0x080008a4   0x00000030   Code   RO         6781    .text               mf_w.l(cdrcmple.o)
    0x080008d4   0x080008d4   0x00000024   Code   RO         6783    .text               mc_w.l(init.o)
    0x080008f8   0x080008f8   0x00000056   Code   RO         6793    .text               mc_w.l(__dczerorl2.o)
    0x0800094e   0x0800094e   0x00000002   PAD
    0x08000950   0x08000950   0x00000090   Code   RO         4261    i.AddFloatdata      judge.o
    0x080009e0   0x080009e0   0x000000bc   Code   RO         4262    i.AddPicture        judge.o
    0x08000a9c   0x08000a9c   0x000000a8   Code   RO         4263    i.AddPictureFunc    judge.o
    0x08000b44   0x08000b44   0x00000028   Code   RO         4203    i.Append_CRC16_Check_Sum  crc.o
    0x08000b6c   0x08000b6c   0x0000001c   Code   RO         4204    i.Append_CRC8_Check_Sum  crc.o
    0x08000b88   0x08000b88   0x00000010   Code   RO         6391    i.BMI088_ACCEL_NS_H  bmi088middleware.o
    0x08000b98   0x08000b98   0x00000010   Code   RO         6392    i.BMI088_ACCEL_NS_L  bmi088middleware.o
    0x08000ba8   0x08000ba8   0x00000002   Code   RO         6393    i.BMI088_GPIO_init  bmi088middleware.o
    0x08000baa   0x08000baa   0x00000002   PAD
    0x08000bac   0x08000bac   0x00000010   Code   RO         6394    i.BMI088_GYRO_NS_H  bmi088middleware.o
    0x08000bbc   0x08000bbc   0x00000010   Code   RO         6395    i.BMI088_GYRO_NS_L  bmi088middleware.o
    0x08000bcc   0x08000bcc   0x00000002   Code   RO         6396    i.BMI088_com_init   bmi088middleware.o
    0x08000bce   0x08000bce   0x00000018   Code   RO         6397    i.BMI088_delay_ms   bmi088middleware.o
    0x08000be6   0x08000be6   0x0000002e   Code   RO         6398    i.BMI088_delay_us   bmi088middleware.o
    0x08000c14   0x08000c14   0x00000018   Code   RO         6253    i.BMI088_init       bmi088driver.o
    0x08000c2c   0x08000c2c   0x00000158   Code   RO         6254    i.BMI088_read       bmi088driver.o
    0x08000d84   0x08000d84   0x00000024   Code   RO         6255    i.BMI088_read_muli_reg  bmi088driver.o
    0x08000da8   0x08000da8   0x00000016   Code   RO         6256    i.BMI088_read_single_reg  bmi088driver.o
    0x08000dbe   0x08000dbe   0x00000002   PAD
    0x08000dc0   0x08000dc0   0x00000020   Code   RO         6399    i.BMI088_read_write_byte  bmi088middleware.o
    0x08000de0   0x08000de0   0x00000012   Code   RO         6257    i.BMI088_write_single_reg  bmi088driver.o
    0x08000df2   0x08000df2   0x00000002   PAD
    0x08000df4   0x08000df4   0x00000184   Code   RO         4264    i.Boarder           judge.o
    0x08000f78   0x08000f78   0x00000002   Code   RO          561    i.BusFault_Handler  stm32f4xx_it.o
    0x08000f7a   0x08000f7a   0x00000002   PAD
    0x08000f7c   0x08000f7c   0x0000000c   Code   RO          562    i.CAN1_RX0_IRQHandler  stm32f4xx_it.o
    0x08000f88   0x08000f88   0x0000000c   Code   RO          563    i.CAN1_TX_IRQHandler  stm32f4xx_it.o
    0x08000f94   0x08000f94   0x0000000c   Code   RO          564    i.CAN2_RX0_IRQHandler  stm32f4xx_it.o
    0x08000fa0   0x08000fa0   0x0000000c   Code   RO          565    i.CAN2_TX_IRQHandler  stm32f4xx_it.o
    0x08000fac   0x08000fac   0x00000068   Code   RO         3701    i.CANFilter_Enable  bsp_can.o
    0x08001014   0x08001014   0x0000001a   Code   RO         3702    i.CAN_Enable        bsp_can.o
    0x0800102e   0x0800102e   0x00000002   PAD
    0x08001030   0x08001030   0x00000058   Code   RO         3703    i.CAN_Send_bytes    bsp_can.o
    0x08001088   0x08001088   0x0000016c   Code   RO         4265    i.CharacteFRIC_stateShow  judge.o
    0x080011f4   0x080011f4   0x000000f4   Code   RO         4266    i.CharacterCHASSISMODstateShow  judge.o
    0x080012e8   0x080012e8   0x0000011c   Code   RO         4267    i.CharacterCHASSIS_MODE  judge.o
    0x08001404   0x08001404   0x00000124   Code   RO         4269    i.CharacterFRIC_MODEShow  judge.o
    0x08001528   0x08001528   0x0000011c   Code   RO         4270    i.CharacterGIMBAL_MODE  judge.o
    0x08001644   0x08001644   0x00000174   Code   RO         4271    i.CharacterGIMBALstateShow  judge.o
    0x080017b8   0x080017b8   0x00000128   Code   RO         4272    i.CharacterPitchShow  judge.o
    0x080018e0   0x080018e0   0x00000014   Code   RO         4274    i.CheckID           judge.o
    0x080018f4   0x080018f4   0x00000208   Code   RO         3827    i.Command           stmgood.o
    0x08001afc   0x08001afc   0x00000030   Code   RO         3828    i.CompStr           stmgood.o
    0x08001b2c   0x08001b2c   0x00000016   Code   RO         3829    i.CopyStr           stmgood.o
    0x08001b42   0x08001b42   0x00000002   PAD
    0x08001b44   0x08001b44   0x00000264   Code   RO         4275    i.Crosshair         judge.o
    0x08001da8   0x08001da8   0x00000120   Code   RO         4276    i.Crosshair1        judge.o
    0x08001ec8   0x08001ec8   0x0000000c   Code   RO          566    i.DMA2_Stream1_IRQHandler  stm32f4xx_it.o
    0x08001ed4   0x08001ed4   0x0000000c   Code   RO          567    i.DMA2_Stream2_IRQHandler  stm32f4xx_it.o
    0x08001ee0   0x08001ee0   0x0000000c   Code   RO          568    i.DMA2_Stream3_IRQHandler  stm32f4xx_it.o
    0x08001eec   0x08001eec   0x00000028   Code   RO         1414    i.DMA_CalcBaseAndBitshift  stm32f4xx_hal_dma.o
    0x08001f14   0x08001f14   0x00000054   Code   RO         1415    i.DMA_CheckFifoParam  stm32f4xx_hal_dma.o
    0x08001f68   0x08001f68   0x00000028   Code   RO         1416    i.DMA_SetConfig     stm32f4xx_hal_dma.o
    0x08001f90   0x08001f90   0x00000088   Code   RO         3830    i.DealStr           stmgood.o
    0x08002018   0x08002018   0x00000090   Code   RO         3831    i.Dealdata          stmgood.o
    0x080020a8   0x080020a8   0x00000002   Code   RO          569    i.DebugMon_Handler  stm32f4xx_it.o
    0x080020aa   0x080020aa   0x00000002   PAD
    0x080020ac   0x080020ac   0x0000043c   Code   RO         4277    i.DrawCapVolRectangle  judge.o
    0x080024e8   0x080024e8   0x00000006   Code   RO          570    i.EXTI4_IRQHandler  stm32f4xx_it.o
    0x080024ee   0x080024ee   0x00000006   Code   RO          571    i.EXTI9_5_IRQHandler  stm32f4xx_it.o
    0x080024f4   0x080024f4   0x00000002   Code   RO           13    i.Error_Handler     main.o
    0x080024f6   0x080024f6   0x00000018   Code   RO         3832    i.FirstSpace        stmgood.o
    0x0800250e   0x0800250e   0x00000002   PAD
    0x08002510   0x08002510   0x0000025c   Code   RO         4278    i.FloatDataShow     judge.o
    0x0800276c   0x0800276c   0x0000002c   Code   RO         4205    i.Get_CRC16_Check_Sum  crc.o
    0x08002798   0x08002798   0x0000001c   Code   RO         4206    i.Get_CRC8_Check_Sum  crc.o
    0x080027b4   0x080027b4   0x00000024   Code   RO          722    i.HAL_CAN_ActivateNotification  stm32f4xx_hal_can.o
    0x080027d8   0x080027d8   0x000000dc   Code   RO          723    i.HAL_CAN_AddTxMessage  stm32f4xx_hal_can.o
    0x080028b4   0x080028b4   0x0000010c   Code   RO          724    i.HAL_CAN_ConfigFilter  stm32f4xx_hal_can.o
    0x080029c0   0x080029c0   0x00000002   Code   RO          727    i.HAL_CAN_ErrorCallback  stm32f4xx_hal_can.o
    0x080029c2   0x080029c2   0x000000e8   Code   RO          730    i.HAL_CAN_GetRxMessage  stm32f4xx_hal_can.o
    0x08002aaa   0x08002aaa   0x000001fc   Code   RO          734    i.HAL_CAN_IRQHandler  stm32f4xx_hal_can.o
    0x08002ca6   0x08002ca6   0x0000011a   Code   RO          735    i.HAL_CAN_Init      stm32f4xx_hal_can.o
    0x08002dc0   0x08002dc0   0x0000011c   Code   RO          351    i.HAL_CAN_MspInit   can.o
    0x08002edc   0x08002edc   0x00000002   Code   RO          742    i.HAL_CAN_RxFifo0FullCallback  stm32f4xx_hal_can.o
    0x08002ede   0x08002ede   0x00000002   PAD
    0x08002ee0   0x08002ee0   0x000000d4   Code   RO         3704    i.HAL_CAN_RxFifo0MsgPendingCallback  bsp_can.o
    0x08002fb4   0x08002fb4   0x00000002   Code   RO          744    i.HAL_CAN_RxFifo1FullCallback  stm32f4xx_hal_can.o
    0x08002fb6   0x08002fb6   0x00000002   Code   RO          745    i.HAL_CAN_RxFifo1MsgPendingCallback  stm32f4xx_hal_can.o
    0x08002fb8   0x08002fb8   0x00000002   Code   RO          746    i.HAL_CAN_SleepCallback  stm32f4xx_hal_can.o
    0x08002fba   0x08002fba   0x00000002   PAD
    0x08002fbc   0x08002fbc   0x00000058   Code   RO          747    i.HAL_CAN_Start     stm32f4xx_hal_can.o
    0x08003014   0x08003014   0x00000002   Code   RO          749    i.HAL_CAN_TxMailbox0AbortCallback  stm32f4xx_hal_can.o
    0x08003016   0x08003016   0x00000002   Code   RO          750    i.HAL_CAN_TxMailbox0CompleteCallback  stm32f4xx_hal_can.o
    0x08003018   0x08003018   0x00000002   Code   RO          751    i.HAL_CAN_TxMailbox1AbortCallback  stm32f4xx_hal_can.o
    0x0800301a   0x0800301a   0x00000002   Code   RO          752    i.HAL_CAN_TxMailbox1CompleteCallback  stm32f4xx_hal_can.o
    0x0800301c   0x0800301c   0x00000002   Code   RO          753    i.HAL_CAN_TxMailbox2AbortCallback  stm32f4xx_hal_can.o
    0x0800301e   0x0800301e   0x00000002   Code   RO          754    i.HAL_CAN_TxMailbox2CompleteCallback  stm32f4xx_hal_can.o
    0x08003020   0x08003020   0x00000002   Code   RO          756    i.HAL_CAN_WakeUpFromRxMsgCallback  stm32f4xx_hal_can.o
    0x08003022   0x08003022   0x00000024   Code   RO         1418    i.HAL_DMA_Abort_IT  stm32f4xx_hal_dma.o
    0x08003046   0x08003046   0x00000002   PAD
    0x08003048   0x08003048   0x000001a0   Code   RO         1422    i.HAL_DMA_IRQHandler  stm32f4xx_hal_dma.o
    0x080031e8   0x080031e8   0x000000d4   Code   RO         1423    i.HAL_DMA_Init      stm32f4xx_hal_dma.o
    0x080032bc   0x080032bc   0x0000006e   Code   RO         1427    i.HAL_DMA_Start_IT  stm32f4xx_hal_dma.o
    0x0800332a   0x0800332a   0x00000002   Code   RO         1308    i.HAL_GPIO_EXTI_Callback  stm32f4xx_hal_gpio.o
    0x0800332c   0x0800332c   0x00000018   Code   RO         1309    i.HAL_GPIO_EXTI_IRQHandler  stm32f4xx_hal_gpio.o
    0x08003344   0x08003344   0x000001b8   Code   RO         1310    i.HAL_GPIO_Init     stm32f4xx_hal_gpio.o
    0x080034fc   0x080034fc   0x0000000a   Code   RO         1314    i.HAL_GPIO_WritePin  stm32f4xx_hal_gpio.o
    0x08003506   0x08003506   0x00000002   PAD
    0x08003508   0x08003508   0x0000000c   Code   RO         1842    i.HAL_GetTick       stm32f4xx_hal.o
    0x08003514   0x08003514   0x00000010   Code   RO         1848    i.HAL_IncTick       stm32f4xx_hal.o
    0x08003524   0x08003524   0x00000034   Code   RO         1849    i.HAL_Init          stm32f4xx_hal.o
    0x08003558   0x08003558   0x00000040   Code   RO         1850    i.HAL_InitTick      stm32f4xx_hal.o
    0x08003598   0x08003598   0x00000038   Code   RO          697    i.HAL_MspInit       stm32f4xx_hal_msp.o
    0x080035d0   0x080035d0   0x0000001a   Code   RO         1699    i.HAL_NVIC_EnableIRQ  stm32f4xx_hal_cortex.o
    0x080035ea   0x080035ea   0x00000002   PAD
    0x080035ec   0x080035ec   0x00000040   Code   RO         1705    i.HAL_NVIC_SetPriority  stm32f4xx_hal_cortex.o
    0x0800362c   0x0800362c   0x00000024   Code   RO         1706    i.HAL_NVIC_SetPriorityGrouping  stm32f4xx_hal_cortex.o
    0x08003650   0x08003650   0x00000134   Code   RO          956    i.HAL_RCC_ClockConfig  stm32f4xx_hal_rcc.o
    0x08003784   0x08003784   0x00000020   Code   RO          963    i.HAL_RCC_GetPCLK1Freq  stm32f4xx_hal_rcc.o
    0x080037a4   0x080037a4   0x00000020   Code   RO          964    i.HAL_RCC_GetPCLK2Freq  stm32f4xx_hal_rcc.o
    0x080037c4   0x080037c4   0x00000064   Code   RO          965    i.HAL_RCC_GetSysClockFreq  stm32f4xx_hal_rcc.o
    0x08003828   0x08003828   0x0000035c   Code   RO          968    i.HAL_RCC_OscConfig  stm32f4xx_hal_rcc.o
    0x08003b84   0x08003b84   0x00000080   Code   RO         2098    i.HAL_SPI_Init      stm32f4xx_hal_spi.o
    0x08003c04   0x08003c04   0x00000100   Code   RO          424    i.HAL_SPI_MspInit   spi.o
    0x08003d04   0x08003d04   0x000001e2   Code   RO         2107    i.HAL_SPI_TransmitReceive  stm32f4xx_hal_spi.o
    0x08003ee6   0x08003ee6   0x00000028   Code   RO         1710    i.HAL_SYSTICK_Config  stm32f4xx_hal_cortex.o
    0x08003f0e   0x08003f0e   0x00000002   Code   RO         3086    i.HAL_TIMEx_BreakCallback  stm32f4xx_hal_tim_ex.o
    0x08003f10   0x08003f10   0x00000002   Code   RO         3087    i.HAL_TIMEx_CommutCallback  stm32f4xx_hal_tim_ex.o
    0x08003f12   0x08003f12   0x00000036   Code   RO         2411    i.HAL_TIM_Base_Init  stm32f4xx_hal_tim.o
    0x08003f48   0x08003f48   0x0000003c   Code   RO          466    i.HAL_TIM_Base_MspInit  tim.o
    0x08003f84   0x08003f84   0x00000002   Code   RO         2440    i.HAL_TIM_IC_CaptureCallback  stm32f4xx_hal_tim.o
    0x08003f86   0x08003f86   0x00000166   Code   RO         2454    i.HAL_TIM_IRQHandler  stm32f4xx_hal_tim.o
    0x080040ec   0x080040ec   0x00000054   Code   RO          467    i.HAL_TIM_MspPostInit  tim.o
    0x08004140   0x08004140   0x00000002   Code   RO         2457    i.HAL_TIM_OC_DelayElapsedCallback  stm32f4xx_hal_tim.o
    0x08004142   0x08004142   0x000000d0   Code   RO         2478    i.HAL_TIM_PWM_ConfigChannel  stm32f4xx_hal_tim.o
    0x08004212   0x08004212   0x00000036   Code   RO         2481    i.HAL_TIM_PWM_Init  stm32f4xx_hal_tim.o
    0x08004248   0x08004248   0x00000002   Code   RO         2483    i.HAL_TIM_PWM_MspInit  stm32f4xx_hal_tim.o
    0x0800424a   0x0800424a   0x00000002   Code   RO         2484    i.HAL_TIM_PWM_PulseFinishedCallback  stm32f4xx_hal_tim.o
    0x0800424c   0x0800424c   0x00000002   Code   RO         2492    i.HAL_TIM_PeriodElapsedCallback  stm32f4xx_hal_tim.o
    0x0800424e   0x0800424e   0x00000002   Code   RO         2497    i.HAL_TIM_TriggerCallback  stm32f4xx_hal_tim.o
    0x08004250   0x08004250   0x00000012   Code   RO         3752    i.HAL_UART_ErrorCallback  bsp_usart.o
    0x08004262   0x08004262   0x00000002   PAD
    0x08004264   0x08004264   0x00000114   Code   RO         3361    i.HAL_UART_IRQHandler  stm32f4xx_hal_uart.o
    0x08004378   0x08004378   0x00000062   Code   RO         3362    i.HAL_UART_Init     stm32f4xx_hal_uart.o
    0x080043da   0x080043da   0x00000002   PAD
    0x080043dc   0x080043dc   0x00000124   Code   RO          514    i.HAL_UART_MspInit  usart.o
    0x08004500   0x08004500   0x00000098   Code   RO         3366    i.HAL_UART_Receive_DMA  stm32f4xx_hal_uart.o
    0x08004598   0x08004598   0x00000052   Code   RO         3367    i.HAL_UART_Receive_IT  stm32f4xx_hal_uart.o
    0x080045ea   0x080045ea   0x00000002   PAD
    0x080045ec   0x080045ec   0x0000006c   Code   RO         3753    i.HAL_UART_RxCpltCallback  bsp_usart.o
    0x08004658   0x08004658   0x00000002   Code   RO         3369    i.HAL_UART_RxHalfCpltCallback  stm32f4xx_hal_uart.o
    0x0800465a   0x0800465a   0x0000003e   Code   RO         3372    i.HAL_UART_Transmit_IT  stm32f4xx_hal_uart.o
    0x08004698   0x08004698   0x00000002   Code   RO         3373    i.HAL_UART_TxCpltCallback  stm32f4xx_hal_uart.o
    0x0800469a   0x0800469a   0x00000002   Code   RO          572    i.HardFault_Handler  stm32f4xx_it.o
    0x0800469c   0x0800469c   0x0000022c   Code   RO         4279    i.JudgeData         judge.o
    0x080048c8   0x080048c8   0x00000048   Code   RO          352    i.MX_CAN1_Init      can.o
    0x08004910   0x08004910   0x0000004c   Code   RO          353    i.MX_CAN2_Init      can.o
    0x0800495c   0x0800495c   0x0000004c   Code   RO          399    i.MX_DMA_Init       dma.o
    0x080049a8   0x080049a8   0x00000068   Code   RO          263    i.MX_FREERTOS_Init  freertos.o
    0x08004a10   0x08004a10   0x00000174   Code   RO          239    i.MX_GPIO_Init      gpio.o
    0x08004b84   0x08004b84   0x00000048   Code   RO          425    i.MX_SPI1_Init      spi.o
    0x08004bcc   0x08004bcc   0x00000064   Code   RO          468    i.MX_TIM10_Init     tim.o
    0x08004c30   0x08004c30   0x00000038   Code   RO          515    i.MX_USART1_UART_Init  usart.o
    0x08004c68   0x08004c68   0x00000038   Code   RO          516    i.MX_USART6_UART_Init  usart.o
    0x08004ca0   0x08004ca0   0x0000001c   Code   RO         3705    i.MY_CAN_Init       bsp_can.o
    0x08004cbc   0x08004cbc   0x00000030   Code   RO         3754    i.MY_USART_Init     bsp_usart.o
    0x08004cec   0x08004cec   0x00000002   Code   RO          573    i.MemManage_Handler  stm32f4xx_it.o
    0x08004cee   0x08004cee   0x00000002   Code   RO          574    i.NMI_Handler       stm32f4xx_it.o
    0x08004cf0   0x08004cf0   0x00000058   Code   RO         2136    i.SPI_EndRxTxTransaction  stm32f4xx_hal_spi.o
    0x08004d48   0x08004d48   0x00000094   Code   RO         2141    i.SPI_WaitFlagStateUntilTimeout  stm32f4xx_hal_spi.o
    0x08004ddc   0x08004ddc   0x00000050   Code   RO         3833    i.SplitStr          stmgood.o
    0x08004e2c   0x08004e2c   0x0000000a   Code   RO          264    i.StartDefaultTask  freertos.o
    0x08004e36   0x08004e36   0x0000000c   Code   RO         6161    i.StartTask02       mytask02.o
    0x08004e42   0x08004e42   0x00000002   PAD
    0x08004e44   0x08004e44   0x0000002c   Code   RO         6194    i.StartTask03       mytask03.o
    0x08004e70   0x08004e70   0x00000010   Code   RO         6225    i.StartTask04       mytask04.o
    0x08004e80   0x08004e80   0x000001c0   Code   RO         4547    i.Start_RM_Task     rm_task.o
    0x08005040   0x08005040   0x000001a4   Code   RO         4548    i.Start_UI_Task     rm_task.o
    0x080051e4   0x080051e4   0x00000134   Code   RO         3834    i.StrToFloat        stmgood.o
    0x08005318   0x08005318   0x00000010   Code   RO         3836    i.Strlen            stmgood.o
    0x08005328   0x08005328   0x00000028   Code   RO         3837    i.SubStr            stmgood.o
    0x08005350   0x08005350   0x00000018   Code   RO          575    i.SysTick_Handler   stm32f4xx_it.o
    0x08005368   0x08005368   0x00000084   Code   RO           14    i.SystemClock_Config  main.o
    0x080053ec   0x080053ec   0x00000054   Code   RO         3664    i.SystemInit        system_stm32f4xx.o
    0x08005440   0x08005440   0x0000000c   Code   RO          576    i.TIM1_UP_TIM10_IRQHandler  stm32f4xx_it.o
    0x0800544c   0x0800544c   0x000000c8   Code   RO         2499    i.TIM_Base_SetConfig  stm32f4xx_hal_tim.o
    0x08005514   0x08005514   0x00000060   Code   RO         2512    i.TIM_OC1_SetConfig  stm32f4xx_hal_tim.o
    0x08005574   0x08005574   0x0000006c   Code   RO         2513    i.TIM_OC2_SetConfig  stm32f4xx_hal_tim.o
    0x080055e0   0x080055e0   0x00000068   Code   RO         2514    i.TIM_OC3_SetConfig  stm32f4xx_hal_tim.o
    0x08005648   0x08005648   0x00000050   Code   RO         2515    i.TIM_OC4_SetConfig  stm32f4xx_hal_tim.o
    0x08005698   0x08005698   0x00000074   Code   RO         4281    i.Two_byte_send_id  judge.o
    0x0800570c   0x0800570c   0x00000010   Code   RO         3375    i.UART_DMAAbortOnError  stm32f4xx_hal_uart.o
    0x0800571c   0x0800571c   0x0000004a   Code   RO         3376    i.UART_DMAError     stm32f4xx_hal_uart.o
    0x08005766   0x08005766   0x0000003c   Code   RO         3377    i.UART_DMAReceiveCplt  stm32f4xx_hal_uart.o
    0x080057a2   0x080057a2   0x0000000a   Code   RO         3379    i.UART_DMARxHalfCplt  stm32f4xx_hal_uart.o
    0x080057ac   0x080057ac   0x0000001c   Code   RO         3385    i.UART_EndRxTransfer  stm32f4xx_hal_uart.o
    0x080057c8   0x080057c8   0x00000012   Code   RO         3386    i.UART_EndTxTransfer  stm32f4xx_hal_uart.o
    0x080057da   0x080057da   0x00000096   Code   RO         3387    i.UART_Receive_IT   stm32f4xx_hal_uart.o
    0x08005870   0x08005870   0x00000128   Code   RO         3388    i.UART_SetConfig    stm32f4xx_hal_uart.o
    0x08005998   0x08005998   0x00000062   Code   RO         3389    i.UART_Transmit_IT  stm32f4xx_hal_uart.o
    0x080059fa   0x080059fa   0x00000002   PAD
    0x080059fc   0x080059fc   0x0000000c   Code   RO          577    i.USART1_IRQHandler  stm32f4xx_it.o
    0x08005a08   0x08005a08   0x0000000c   Code   RO          578    i.USART6_IRQHandler  stm32f4xx_it.o
    0x08005a14   0x08005a14   0x00000016   Code   RO         3755    i.USART_Enable      bsp_usart.o
    0x08005a2a   0x08005a2a   0x00000002   Code   RO          579    i.UsageFault_Handler  stm32f4xx_it.o
    0x08005a2c   0x08005a2c   0x0000003c   Code   RO         4207    i.Verify_CRC16_Check_Sum  crc.o
    0x08005a68   0x08005a68   0x00000026   Code   RO         4208    i.Verify_CRC8_Check_Sum  crc.o
    0x08005a8e   0x08005a8e   0x00000002   PAD
    0x08005a90   0x08005a90   0x00000020   Code   RO         6707    i.__0printf         mc_w.l(printfa.o)
    0x08005ab0   0x08005ab0   0x00000020   Code   RO         1712    i.__NVIC_SetPriority  stm32f4xx_hal_cortex.o
    0x08005ad0   0x08005ad0   0x0000000e   Code   RO         6787    i.__scatterload_copy  mc_w.l(handlers.o)
    0x08005ade   0x08005ade   0x00000002   Code   RO         6788    i.__scatterload_null  mc_w.l(handlers.o)
    0x08005ae0   0x08005ae0   0x0000000e   Code   RO         6789    i.__scatterload_zeroinit  mc_w.l(handlers.o)
    0x08005aee   0x08005aee   0x00000002   PAD
    0x08005af0   0x08005af0   0x00000184   Code   RO         6714    i._fp_digits        mc_w.l(printfa.o)
    0x08005c74   0x08005c74   0x000006b4   Code   RO         6715    i._printf_core      mc_w.l(printfa.o)
    0x08006328   0x08006328   0x00000024   Code   RO         6716    i._printf_post_padding  mc_w.l(printfa.o)
    0x0800634c   0x0800634c   0x0000002e   Code   RO         6717    i._printf_pre_padding  mc_w.l(printfa.o)
    0x0800637a   0x0800637a   0x00000002   PAD
    0x0800637c   0x0800637c   0x00000110   Code   RO         6258    i.bmi088_accel_init  bmi088driver.o
    0x0800648c   0x0800648c   0x000000dc   Code   RO         6259    i.bmi088_gyro_init  bmi088driver.o
    0x08006568   0x08006568   0x000000d4   Code   RO         3844    i.cmd               stmgood.o
    0x0800663c   0x0800663c   0x00000014   Code   RO         3757    i.fputc             bsp_usart.o
    0x08006650   0x08006650   0x00000042   Code   RO           15    i.main              main.o
    0x08006692   0x08006692   0x0000000c   Code   RO         5665    i.makeFreeRtosPriority  cmsis_os.o
    0x0800669e   0x0800669e   0x00000002   PAD
    0x080066a0   0x080066a0   0x0000006c   Code   RO         3853    i.multi1            stmgood.o
    0x0800670c   0x0800670c   0x00000058   Code   RO         3854    i.multi2            stmgood.o
    0x08006764   0x08006764   0x0000000e   Code   RO         5667    i.osDelay           cmsis_os.o
    0x08006772   0x08006772   0x0000000a   Code   RO         5670    i.osKernelStart     cmsis_os.o
    0x0800677c   0x0800677c   0x00000054   Code   RO         5704    i.osThreadCreate    cmsis_os.o
    0x080067d0   0x080067d0   0x00000070   Code   RO         5160    i.prvAddCurrentTaskToDelayedList  tasks.o
    0x08006840   0x08006840   0x000000d0   Code   RO         5161    i.prvAddNewTaskToReadyList  tasks.o
    0x08006910   0x08006910   0x00000058   Code   RO         5513    i.prvCheckForValidListAndQueue  timers.o
    0x08006968   0x08006968   0x00000026   Code   RO         4793    i.prvCopyDataFromQueue  queue.o
    0x0800698e   0x0800698e   0x0000006c   Code   RO         4794    i.prvCopyDataToQueue  queue.o
    0x080069fa   0x080069fa   0x00000034   Code   RO         5162    i.prvDeleteTCB      tasks.o
    0x08006a2e   0x08006a2e   0x00000002   PAD
    0x08006a30   0x08006a30   0x0000004c   Code   RO         6032    i.prvHeapInit       heap_4.o
    0x08006a7c   0x08006a7c   0x00000060   Code   RO         5163    i.prvIdleTask       tasks.o
    0x08006adc   0x08006adc   0x00000022   Code   RO         4796    i.prvInitialiseNewQueue  queue.o
    0x08006afe   0x08006afe   0x00000002   PAD
    0x08006b00   0x08006b00   0x000000b0   Code   RO         5164    i.prvInitialiseNewTask  tasks.o
    0x08006bb0   0x08006bb0   0x0000004c   Code   RO         6033    i.prvInsertBlockIntoFreeList  heap_4.o
    0x08006bfc   0x08006bfc   0x00000038   Code   RO         5515    i.prvInsertTimerInActiveList  timers.o
    0x08006c34   0x08006c34   0x0000001c   Code   RO         4797    i.prvIsQueueEmpty   queue.o
    0x08006c50   0x08006c50   0x000000f0   Code   RO         5516    i.prvProcessReceivedCommands  timers.o
    0x08006d40   0x08006d40   0x000000c0   Code   RO         5517    i.prvProcessTimerOrBlockTask  timers.o
    0x08006e00   0x08006e00   0x00000020   Code   RO         5166    i.prvResetNextTaskUnblockTime  tasks.o
    0x08006e20   0x08006e20   0x00000028   Code   RO         5518    i.prvSampleTimeNow  timers.o
    0x08006e48   0x08006e48   0x0000006c   Code   RO         5519    i.prvSwitchTimerLists  timers.o
    0x08006eb4   0x08006eb4   0x00000028   Code   RO         6082    i.prvTaskExitError  port.o
    0x08006edc   0x08006edc   0x00000024   Code   RO         5520    i.prvTimerTask      timers.o
    0x08006f00   0x08006f00   0x0000006a   Code   RO         4798    i.prvUnlockQueue    queue.o
    0x08006f6a   0x08006f6a   0x00000002   PAD
    0x08006f6c   0x08006f6c   0x000000d8   Code   RO         6034    i.pvPortMalloc      heap_4.o
    0x08007044   0x08007044   0x0000002c   Code   RO         6083    i.pxPortInitialiseStack  port.o
    0x08007070   0x08007070   0x00000026   Code   RO         4753    i.uxListRemove      list.o
    0x08007096   0x08007096   0x00000002   PAD
    0x08007098   0x08007098   0x00000014   Code   RO          269    i.vApplicationGetIdleTaskMemory  freertos.o
    0x080070ac   0x080070ac   0x00000014   Code   RO          270    i.vApplicationGetTimerTaskMemory  freertos.o
    0x080070c0   0x080070c0   0x00000002   Code   RO          271    i.vApplicationStackOverflowHook  freertos.o
    0x080070c2   0x080070c2   0x00000016   Code   RO         4754    i.vListInitialise   list.o
    0x080070d8   0x080070d8   0x00000006   Code   RO         4755    i.vListInitialiseItem  list.o
    0x080070de   0x080070de   0x00000030   Code   RO         4756    i.vListInsert       list.o
    0x0800710e   0x0800710e   0x00000018   Code   RO         4757    i.vListInsertEnd    list.o
    0x08007126   0x08007126   0x00000002   PAD
    0x08007128   0x08007128   0x00000040   Code   RO         6085    i.vPortEnterCritical  port.o
    0x08007168   0x08007168   0x00000028   Code   RO         6086    i.vPortExitCritical  port.o
    0x08007190   0x08007190   0x0000005c   Code   RO         6035    i.vPortFree         heap_4.o
    0x080071ec   0x080071ec   0x00000024   Code   RO         6087    i.vPortSetupTimerInterrupt  port.o
    0x08007210   0x08007210   0x00000054   Code   RO         6088    i.vPortValidateInterruptPriority  port.o
    0x08007264   0x08007264   0x00000028   Code   RO         4804    i.vQueueAddToRegistry  queue.o
    0x0800728c   0x0800728c   0x00000044   Code   RO         4808    i.vQueueWaitForMessageRestricted  queue.o
    0x080072d0   0x080072d0   0x0000004c   Code   RO         5178    i.vTaskDelay        tasks.o
    0x0800731c   0x0800731c   0x00000010   Code   RO         5183    i.vTaskInternalSetTimeOutState  tasks.o
    0x0800732c   0x0800732c   0x0000000c   Code   RO         5184    i.vTaskMissedYield  tasks.o
    0x08007338   0x08007338   0x00000030   Code   RO         5186    i.vTaskPlaceOnEventList  tasks.o
    0x08007368   0x08007368   0x00000038   Code   RO         5187    i.vTaskPlaceOnEventListRestricted  tasks.o
    0x080073a0   0x080073a0   0x00000088   Code   RO         5195    i.vTaskStartScheduler  tasks.o
    0x08007428   0x08007428   0x00000010   Code   RO         5197    i.vTaskSuspendAll   tasks.o
    0x08007438   0x08007438   0x00000074   Code   RO         5198    i.vTaskSwitchContext  tasks.o
    0x080074ac   0x080074ac   0x000000f4   Code   RO         6089    i.xPortStartScheduler  port.o
    0x080075a0   0x080075a0   0x0000002c   Code   RO         6090    i.xPortSysTickHandler  port.o
    0x080075cc   0x080075cc   0x00000066   Code   RO         4812    i.xQueueGenericCreateStatic  queue.o
    0x08007632   0x08007632   0x00000002   PAD
    0x08007634   0x08007634   0x00000088   Code   RO         4813    i.xQueueGenericReset  queue.o
    0x080076bc   0x080076bc   0x00000160   Code   RO         4814    i.xQueueGenericSend  queue.o
    0x0800781c   0x0800781c   0x000000bc   Code   RO         4815    i.xQueueGenericSendFromISR  queue.o
    0x080078d8   0x080078d8   0x00000138   Code   RO         4821    i.xQueueReceive     queue.o
    0x08007a10   0x08007a10   0x00000074   Code   RO         5199    i.xTaskCheckForTimeOut  tasks.o
    0x08007a84   0x08007a84   0x0000005a   Code   RO         5200    i.xTaskCreate       tasks.o
    0x08007ade   0x08007ade   0x00000056   Code   RO         5201    i.xTaskCreateStatic  tasks.o
    0x08007b34   0x08007b34   0x0000001c   Code   RO         5205    i.xTaskGetSchedulerState  tasks.o
    0x08007b50   0x08007b50   0x0000000c   Code   RO         5206    i.xTaskGetTickCount  tasks.o
    0x08007b5c   0x08007b5c   0x000000c8   Code   RO         5208    i.xTaskIncrementTick  tasks.o
    0x08007c24   0x08007c24   0x00000098   Code   RO         5211    i.xTaskPriorityDisinherit  tasks.o
    0x08007cbc   0x08007cbc   0x00000074   Code   RO         5213    i.xTaskRemoveFromEventList  tasks.o
    0x08007d30   0x08007d30   0x000000c4   Code   RO         5214    i.xTaskResumeAll    tasks.o
    0x08007df4   0x08007df4   0x00000060   Code   RO         5528    i.xTimerCreateTimerTask  timers.o
    0x08007e54   0x08007e54   0x00000060   Code   RO         5529    i.xTimerGenericCommand  timers.o
    0x08007eb4   0x08007eb4   0x00000070   Data   RO          273    .constdata          freertos.o
    0x08007f24   0x08007f24   0x00000008   Data   RO         1429    .constdata          stm32f4xx_hal_dma.o
    0x08007f2c   0x08007f2c   0x00000010   Data   RO         3665    .constdata          system_stm32f4xx.o
    0x08007f3c   0x08007f3c   0x00000008   Data   RO         3666    .constdata          system_stm32f4xx.o
    0x08007f44   0x08007f44   0x00000300   Data   RO         4210    .constdata          crc.o
    0x08008244   0x08008244   0x00000030   Data   RO          274    .conststring        freertos.o
    0x08008274   0x08008274   0x000000ce   Data   RO         4294    .conststring        judge.o
    0x08008342   0x08008342   0x00000002   PAD
    0x08008344   0x08008344   0x00000020   Data   RO         6785    Region$$Table       anon$$obj.o


    Execution Region RW_IRAM2 (Exec base: 0x10000000, Load base: 0x080083ec, Size: 0x00000000, Max: 0x00010000, ABSOLUTE)

    **** No section assigned to this execution region ****


    Execution Region RW_IRAM1 (Exec base: 0x20000000, Load base: 0x08008364, Size: 0x00003ca8, Max: 0x00020000, ABSOLUTE, COMPRESSED[0x00000088])

    Exec Addr    Load Addr    Size         Type   Attr      Idx    E Section Name        Object

    0x20000000   COMPRESSED   0x00000010   Data   RW          275    .data               freertos.o
    0x20000010   COMPRESSED   0x00000004   Data   RW          355    .data               can.o
    0x20000014   COMPRESSED   0x0000000c   Data   RW         1856    .data               stm32f4xx_hal.o
    0x20000020   COMPRESSED   0x00000004   Data   RW         3667    .data               system_stm32f4xx.o
    0x20000024   COMPRESSED   0x00000001   Data   RW         3759    .data               bsp_usart.o
    0x20000025   COMPRESSED   0x00000003   PAD
    0x20000028   COMPRESSED   0x00000048   Data   RW         3892    .data               stmgood.o
    0x20000070   COMPRESSED   0x00000002   Data   RW         4211    .data               crc.o
    0x20000072   COMPRESSED   0x00000002   PAD
    0x20000074   COMPRESSED   0x000000ac   Data   RW         4295    .data               judge.o
    0x20000120   COMPRESSED   0x00000004   Data   RW         4296    .data               judge.o
    0x20000124   COMPRESSED   0x00000014   Data   RW         4549    .data               rm_task.o
    0x20000138   COMPRESSED   0x0000003c   Data   RW         5217    .data               tasks.o
    0x20000174   COMPRESSED   0x00000014   Data   RW         5535    .data               timers.o
    0x20000188   COMPRESSED   0x00000018   Data   RW         6040    .data               heap_4.o
    0x200001a0   COMPRESSED   0x0000000c   Data   RW         6091    .data               port.o
    0x200001ac   COMPRESSED   0x00000008   Data   RW         6196    .data               mytask03.o
    0x200001b4   COMPRESSED   0x0000002c   Data   RW         6260    .data               bmi088driver.o
    0x200001e0   COMPRESSED   0x00000004   Data   RW         6763    .data               mc_w.l(stdout.o)
    0x200001e4        -       0x000004b8   Zero   RW          272    .bss                freertos.o
    0x2000069c        -       0x00000050   Zero   RW          354    .bss                can.o
    0x200006ec        -       0x00000118   Zero   RW          426    .bss                spi.o
    0x20000804        -       0x00000040   Zero   RW          469    .bss                tim.o
    0x20000844        -       0x000000e0   Zero   RW          517    .bss                usart.o
    0x20000924        -       0x00000024   Zero   RW         3706    .bss                bsp_can.o
    0x20000948        -       0x0000001e   Zero   RW         3758    .bss                bsp_usart.o
    0x20000966   COMPRESSED   0x00000002   PAD
    0x20000968        -       0x00000450   Zero   RW         3891    .bss                stmgood.o
    0x20000db8        -       0x00000976   Zero   RW         4282    .bss                judge.o
    0x2000172e   COMPRESSED   0x00000002   PAD
    0x20001730        -       0x00000040   Zero   RW         4824    .bss                queue.o
    0x20001770        -       0x000000f0   Zero   RW         5216    .bss                tasks.o
    0x20001860        -       0x000000f0   Zero   RW         5534    .bss                timers.o
    0x20001950        -       0x00001f40   Zero   RW         6039    .bss                heap_4.o
    0x20003890        -       0x00000018   Zero   RW         6195    .bss                mytask03.o
    0x200038a8        -       0x00000400   Zero   RW            1    STACK               startup_stm32f407xx.o


==============================================================================

Image component sizes


      Code (inc. data)   RO Data    RW Data    ZI Data      Debug   Object Name

       936         16          0         44          0       6826   bmi088driver.o
       170         28          0          0          0       4640   bmi088middleware.o
       458         54          0          0         36       3661   bsp_can.o
       216         48          0          1         30       3392   bsp_usart.o
       432         46          0          4         80       2334   can.o
       120          0          0          0          0      22969   cmsis_os.o
       238         20        768          2          0       4552   crc.o
        76          4          0          0          0        722   dma.o
         0          0          0          0          0      18824   event_groups.o
       156         16        160         16       1208       3819   freertos.o
       372         34          0          0          0       1111   gpio.o
       460         24          0         24       8000       4663   heap_4.o
      6304        272        206        176       2422      27308   judge.o
       138          0          0          0          0       3434   list.o
       200          8          0          0          0     738220   main.o
        12          0          0          0          0        454   mytask02.o
        44         10          0          8         24       1617   mytask03.o
        16          0          0          0          0        454   mytask04.o
       786         82          0         12          0      11669   port.o
      1512         20          0          0         64      17064   queue.o
       868         48          0         20          0       7840   rm_task.o
       328         32          0          0        280       1779   spi.o
        36          8        392          0       1024        812   startup_stm32f407xx.o
       144         24          0         12          0       8605   stm32f4xx_hal.o
      1658          6          0          0          0      13807   stm32f4xx_hal_can.o
       198         14          0          0          0      33835   stm32f4xx_hal_cortex.o
       938         16          8          0          0       6278   stm32f4xx_hal_dma.o
       476         52          0          0          0       3456   stm32f4xx_hal_gpio.o
        56          4          0          0          0        790   stm32f4xx_hal_msp.o
      1332         76          0          0          0       5084   stm32f4xx_hal_rcc.o
       846          8          0          0          0       4621   stm32f4xx_hal_spi.o
      1274         80          0          0          0      11434   stm32f4xx_hal_tim.o
         4          0          0          0          0       1529   stm32f4xx_hal_tim_ex.o
      1424         30          0          0          0      11374   stm32f4xx_hal_uart.o
       168         60          0          0          0       8378   stm32f4xx_it.o
      1746        308          0         72       1104      10178   stmgood.o
         0          0          0          0          0        448   stream_buffer.o
        84         18         24          4          0       1087   system_stm32f4xx.o
      2148        156          0         60        240      26336   tasks.o
       244         32          0          0         64       2154   tim.o
       952         80          0         20        240      29567   timers.o
       404         50          0          0        224       2378   usart.o

    ----------------------------------------------------------------------
     28028       1784       1592        480      15044    1069503   Object Totals
         0          0         32          0          0          0   (incl. Generated)
        54          0          2          5          4          0   (incl. Padding)

    ----------------------------------------------------------------------

      Code (inc. data)   RO Data    RW Data    ZI Data      Debug   Library Member Name

        86          0          0          0          0          0   __dczerorl2.o
         0          0          0          0          0          0   entry.o
         0          0          0          0          0          0   entry10a.o
         0          0          0          0          0          0   entry11a.o
         4          0          0          0          0          0   entry12b.o
         8          4          0          0          0          0   entry2.o
         4          0          0          0          0          0   entry5.o
         0          0          0          0          0          0   entry7b.o
         0          0          0          0          0          0   entry8b.o
         8          4          0          0          0          0   entry9a.o
        30          0          0          0          0          0   handlers.o
        36          8          0          0          0         68   init.o
         0          0          0          0          0          0   iusefp.o
        30          0          0          0          0         68   llshl.o
        36          0          0          0          0         68   llsshr.o
        32          0          0          0          0         68   llushr.o
        36          0          0          0          0         68   memcpya.o
        36          0          0          0          0        108   memseta.o
      2218         90          0          0          0        464   printfa.o
         0          0          0          4          0          0   stdout.o
        44          0          0          0          0         80   uidiv.o
        98          0          0          0          0         92   uldiv.o
        48          0          0          0          0         68   cdrcmple.o
        56          0          0          0          0         88   d2f.o
       334          0          0          0          0        148   dadd.o
       222          0          0          0          0        100   ddiv.o
       186          0          0          0          0        176   depilogue.o
        48          0          0          0          0         68   dfixul.o
        34          0          0          0          0         76   dflti.o
       228          0          0          0          0         96   dmul.o
        38          0          0          0          0         68   f2d.o
       110          0          0          0          0        168   fepilogue.o

    ----------------------------------------------------------------------
      4016        106          0          4          0       2140   Library Totals
         6          0          0          0          0          0   (incl. Padding)

    ----------------------------------------------------------------------

      Code (inc. data)   RO Data    RW Data    ZI Data      Debug   Library Name

      2706        106          0          4          0       1084   mc_w.l
      1304          0          0          0          0       1056   mf_w.l

    ----------------------------------------------------------------------
      4016        106          0          4          0       2140   Library Totals

    ----------------------------------------------------------------------

==============================================================================


      Code (inc. data)   RO Data    RW Data    ZI Data      Debug   

     32044       1890       1592        484      15044    1045987   Grand Totals
     32044       1890       1592        136      15044    1045987   ELF Image Totals (compressed)
     32044       1890       1592        136          0          0   ROM Totals

==============================================================================

    Total RO  Size (Code + RO Data)                33636 (  32.85kB)
    Total RW  Size (RW Data + ZI Data)             15528 (  15.16kB)
    Total ROM Size (Code + RO Data + RW Data)      33772 (  32.98kB)

==============================================================================

